{
  "_format": "hh-sol-artifact-1",
  "contractName": "SimpleVerifyingPaymaster",
  "sourceName": "contracts/SimpleVerifyingPaymaster.sol",
  "abi": [
    {
      "inputs": [
        {
          "internalType": "address",
          "name": "_entryPoint",
          "type": "address"
        },
        {
          "internalType": "address",
          "name": "_verifyingSigner",
          "type": "address"
        }
      ],
      "stateMutability": "nonpayable",
      "type": "constructor"
    },
    {
      "inputs": [],
      "name": "addDeposit",
      "outputs": [],
      "stateMutability": "payable",
      "type": "function"
    },
    {
      "inputs": [
        {
          "internalType": "address",
          "name": "",
          "type": "address"
        }
      ],
      "name": "balances",
      "outputs": [
        {
          "internalType": "uint256",
          "name": "",
          "type": "uint256"
        }
      ],
      "stateMutability": "view",
      "type": "function"
    },
    {
      "inputs": [],
      "name": "entryPoint",
      "outputs": [
        {
          "internalType": "address",
          "name": "",
          "type": "address"
        }
      ],
      "stateMutability": "view",
      "type": "function"
    },
    {
      "inputs": [],
      "name": "owner",
      "outputs": [
        {
          "internalType": "address",
          "name": "",
          "type": "address"
        }
      ],
      "stateMutability": "view",
      "type": "function"
    },
    {
      "inputs": [
        {
          "internalType": "enum IPaymaster.PostOpMode",
          "name": "mode",
          "type": "uint8"
        },
        {
          "internalType": "bytes",
          "name": "context",
          "type": "bytes"
        },
        {
          "internalType": "uint256",
          "name": "actualGasCost",
          "type": "uint256"
        }
      ],
      "name": "postOp",
      "outputs": [],
      "stateMutability": "nonpayable",
      "type": "function"
    },
    {
      "inputs": [
        {
          "internalType": "address",
          "name": "account",
          "type": "address"
        }
      ],
      "name": "sponsorAccount",
      "outputs": [],
      "stateMutability": "nonpayable",
      "type": "function"
    },
    {
      "inputs": [
        {
          "internalType": "address",
          "name": "",
          "type": "address"
        }
      ],
      "name": "sponsoredAccounts",
      "outputs": [
        {
          "internalType": "bool",
          "name": "",
          "type": "bool"
        }
      ],
      "stateMutability": "view",
      "type": "function"
    },
    {
      "inputs": [
        {
          "internalType": "address",
          "name": "account",
          "type": "address"
        }
      ],
      "name": "unsponsorAccount",
      "outputs": [],
      "stateMutability": "nonpayable",
      "type": "function"
    },
    {
      "inputs": [
        {
          "components": [
            {
              "internalType": "address",
              "name": "sender",
              "type": "address"
            },
            {
              "internalType": "uint256",
              "name": "nonce",
              "type": "uint256"
            },
            {
              "internalType": "bytes",
              "name": "initCode",
              "type": "bytes"
            },
            {
              "internalType": "bytes",
              "name": "callData",
              "type": "bytes"
            },
            {
              "internalType": "uint256",
              "name": "callGasLimit",
              "type": "uint256"
            },
            {
              "internalType": "uint256",
              "name": "verificationGasLimit",
              "type": "uint256"
            },
            {
              "internalType": "uint256",
              "name": "preVerificationGas",
              "type": "uint256"
            },
            {
              "internalType": "uint256",
              "name": "maxFeePerGas",
              "type": "uint256"
            },
            {
              "internalType": "uint256",
              "name": "maxPriorityFeePerGas",
              "type": "uint256"
            },
            {
              "internalType": "bytes",
              "name": "paymasterAndData",
              "type": "bytes"
            },
            {
              "internalType": "bytes",
              "name": "signature",
              "type": "bytes"
            }
          ],
          "internalType": "struct UserOperation",
          "name": "userOp",
          "type": "tuple"
        },
        {
          "internalType": "bytes32",
          "name": "userOpHash",
          "type": "bytes32"
        },
        {
          "internalType": "uint256",
          "name": "maxCost",
          "type": "uint256"
        }
      ],
      "name": "validatePaymasterUserOp",
      "outputs": [
        {
          "internalType": "bytes",
          "name": "context",
          "type": "bytes"
        },
        {
          "internalType": "uint256",
          "name": "validationData",
          "type": "uint256"
        }
      ],
      "stateMutability": "nonpayable",
      "type": "function"
    },
    {
      "inputs": [],
      "name": "verifyingSigner",
      "outputs": [
        {
          "internalType": "address",
          "name": "",
          "type": "address"
        }
      ],
      "stateMutability": "view",
      "type": "function"
    },
    {
      "inputs": [
        {
          "internalType": "address payable",
          "name": "withdrawAddress",
          "type": "address"
        },
        {
          "internalType": "uint256",
          "name": "amount",
          "type": "uint256"
        }
      ],
      "name": "withdrawDepositTo",
      "outputs": [],
      "stateMutability": "nonpayable",
      "type": "function"
    },
    {
      "stateMutability": "payable",
      "type": "receive"
    }
  ],
  "bytecode": "0x60a060405234801561001057600080fd5b5060405162000eff38038062000eff83398181016040528101906100349190610153565b8173ffffffffffffffffffffffffffffffffffffffff1660808173ffffffffffffffffffffffffffffffffffffffff1681525050806000806101000a81548173ffffffffffffffffffffffffffffffffffffffff021916908373ffffffffffffffffffffffffffffffffffffffff16021790555033600360006101000a81548173ffffffffffffffffffffffffffffffffffffffff021916908373ffffffffffffffffffffffffffffffffffffffff1602179055505050610193565b600080fd5b600073ffffffffffffffffffffffffffffffffffffffff82169050919050565b6000610120826100f5565b9050919050565b61013081610115565b811461013b57600080fd5b50565b60008151905061014d81610127565b92915050565b6000806040838503121561016a576101696100f0565b5b60006101788582860161013e565b92505060206101898582860161013e565b9150509250929050565b608051610d50620001af600039600061058b0152610d506000f3fe6080604052600436106100a05760003560e01c80636d2a2d59116100645780636d2a2d591461018c5780638da5cb5b146101b5578063a9a23409146101e0578063b0d691fe14610209578063f465c77e14610234578063f8117aa814610272576100af565b806323d9ac9b146100b457806327e235e3146100df57806348c63f471461011c5780634a58db19146101595780634d44560d14610163576100af565b366100af576100ad61029b565b005b600080fd5b3480156100c057600080fd5b506100c96102f3565b6040516100d69190610780565b60405180910390f35b3480156100eb57600080fd5b50610106600480360381019061010191906107d1565b610317565b6040516101139190610817565b60405180910390f35b34801561012857600080fd5b50610143600480360381019061013e91906107d1565b61032f565b604051610150919061084d565b60405180910390f35b61016161029b565b005b34801561016f57600080fd5b5061018a600480360381019061018591906108d2565b61034f565b005b34801561019857600080fd5b506101b360048036038101906101ae91906107d1565b610472565b005b3480156101c157600080fd5b506101ca61055d565b6040516101d79190610780565b60405180910390f35b3480156101ec57600080fd5b506102076004803603810190610202919061099c565b610583565b005b34801561021557600080fd5b5061021e610589565b60405161022b9190610780565b60405180910390f35b34801561024057600080fd5b5061025b60048036038101906102569190610a6b565b6105ad565b604051610269929190610b6a565b60405180910390f35b34801561027e57600080fd5b50610299600480360381019061029491906107d1565b610654565b005b34600160003373ffffffffffffffffffffffffffffffffffffffff1673ffffffffffffffffffffffffffffffffffffffff16815260200190815260200160002060008282546102ea9190610bc9565b92505081905550565b60008054906101000a900473ffffffffffffffffffffffffffffffffffffffff1681565b60016020528060005260406000206000915090505481565b60026020528060005260406000206000915054906101000a900460ff1681565b80600160003373ffffffffffffffffffffffffffffffffffffffff1673ffffffffffffffffffffffffffffffffffffffff1681526020019081526020016000205410156103d1576040517f08c379a00000000000000000000000000000000000000000000000000000000081526004016103c890610c5a565b60405180910390fd5b80600160003373ffffffffffffffffffffffffffffffffffffffff1673ffffffffffffffffffffffffffffffffffffffff16815260200190815260200160002060008282546104209190610c7a565b925050819055508173ffffffffffffffffffffffffffffffffffffffff166108fc829081150290604051600060405180830381858888f1935050505015801561046d573d6000803e3d6000fd5b505050565b600360009054906101000a900473ffffffffffffffffffffffffffffffffffffffff1673ffffffffffffffffffffffffffffffffffffffff163373ffffffffffffffffffffffffffffffffffffffff1614610502576040517f08c379a00000000000000000000000000000000000000000000000000000000081526004016104f990610cfa565b60405180910390fd5b6000600260008373ffffffffffffffffffffffffffffffffffffffff1673ffffffffffffffffffffffffffffffffffffffff16815260200190815260200160002060006101000a81548160ff02191690831515021790555050565b600360009054906101000a900473ffffffffffffffffffffffffffffffffffffffff1681565b50505050565b7f000000000000000000000000000000000000000000000000000000000000000081565b60606000808560000160208101906105c591906107d1565b9050600260008273ffffffffffffffffffffffffffffffffffffffff1673ffffffffffffffffffffffffffffffffffffffff16815260200190815260200160002060009054906101000a900460ff1615610634576000915060405180602001604052806000815250925061064b565b600191506040518060200160405280600081525092505b50935093915050565b600360009054906101000a900473ffffffffffffffffffffffffffffffffffffffff1673ffffffffffffffffffffffffffffffffffffffff163373ffffffffffffffffffffffffffffffffffffffff16146106e4576040517f08c379a00000000000000000000000000000000000000000000000000000000081526004016106db90610cfa565b60405180910390fd5b6001600260008373ffffffffffffffffffffffffffffffffffffffff1673ffffffffffffffffffffffffffffffffffffffff16815260200190815260200160002060006101000a81548160ff02191690831515021790555050565b600073ffffffffffffffffffffffffffffffffffffffff82169050919050565b600061076a8261073f565b9050919050565b61077a8161075f565b82525050565b60006020820190506107956000830184610771565b92915050565b600080fd5b600080fd5b6107ae8161075f565b81146107b957600080fd5b50565b6000813590506107cb816107a5565b92915050565b6000602082840312156107e7576107e661079b565b5b60006107f5848285016107bc565b91505092915050565b6000819050919050565b610811816107fe565b82525050565b600060208201905061082c6000830184610808565b92915050565b60008115159050919050565b61084781610832565b82525050565b6000602082019050610862600083018461083e565b92915050565b60006108738261073f565b9050919050565b61088381610868565b811461088e57600080fd5b50565b6000813590506108a08161087a565b92915050565b6108af816107fe565b81146108ba57600080fd5b50565b6000813590506108cc816108a6565b92915050565b600080604083850312156108e9576108e861079b565b5b60006108f785828601610891565b9250506020610908858286016108bd565b9150509250929050565b6003811061091f57600080fd5b50565b60008135905061093181610912565b92915050565b600080fd5b600080fd5b600080fd5b60008083601f84011261095c5761095b610937565b5b8235905067ffffffffffffffff8111156109795761097861093c565b5b60208301915083600182028301111561099557610994610941565b5b9250929050565b600080600080606085870312156109b6576109b561079b565b5b60006109c487828801610922565b945050602085013567ffffffffffffffff8111156109e5576109e46107a0565b5b6109f187828801610946565b93509350506040610a04878288016108bd565b91505092959194509250565b600080fd5b60006101608284031215610a2c57610a2b610a10565b5b81905092915050565b6000819050919050565b610a4881610a35565b8114610a5357600080fd5b50565b600081359050610a6581610a3f565b92915050565b600080600060608486031215610a8457610a8361079b565b5b600084013567ffffffffffffffff811115610aa257610aa16107a0565b5b610aae86828701610a15565b9350506020610abf86828701610a56565b9250506040610ad0868287016108bd565b9150509250925092565b600081519050919050565b600082825260208201905092915050565b60005b83811015610b14578082015181840152602081019050610af9565b60008484015250505050565b6000601f19601f8301169050919050565b6000610b3c82610ada565b610b468185610ae5565b9350610b56818560208601610af6565b610b5f81610b20565b840191505092915050565b60006040820190508181036000830152610b848185610b31565b9050610b936020830184610808565b9392505050565b7f4e487b7100000000000000000000000000000000000000000000000000000000600052601160045260246000fd5b6000610bd4826107fe565b9150610bdf836107fe565b9250828201905080821115610bf757610bf6610b9a565b5b92915050565b600082825260208201905092915050565b7f496e73756666696369656e742062616c616e6365000000000000000000000000600082015250565b6000610c44601483610bfd565b9150610c4f82610c0e565b602082019050919050565b60006020820190508181036000830152610c7381610c37565b9050919050565b6000610c85826107fe565b9150610c90836107fe565b9250828203905081811115610ca857610ca7610b9a565b5b92915050565b7f4e6f74206f776e65720000000000000000000000000000000000000000000000600082015250565b6000610ce4600983610bfd565b9150610cef82610cae565b602082019050919050565b60006020820190508181036000830152610d1381610cd7565b905091905056fea2646970667358221220c46a3015a58f5defff72537fc71cfa91aebf635c30c936eddf0e4207c393579864736f6c63430008110033",
  "linkReferences": {},
  "deployedLinkReferences": {}
}