{
  "_format": "hh-sol-artifact-1",
  "contractName": "SimpleAdvancedAccount",
  "sourceName": "contracts/SimpleAdvancedAccount.sol",
  "abi": [
    {
      "inputs": [
        {
          "internalType": "address",
          "name": "_entryPoint",
          "type": "address"
        }
      ],
      "stateMutability": "nonpayable",
      "type": "constructor"
    },
    {
      "anonymous": false,
      "inputs": [
        {
          "indexed": true,
          "internalType": "address",
          "name": "entryPoint",
          "type": "address"
        },
        {
          "indexed": true,
          "internalType": "address",
          "name": "owner",
          "type": "address"
        }
      ],
      "name": "AccountInitialized",
      "type": "event"
    },
    {
      "inputs": [],
      "name": "SIG_VALIDATION_FAILED",
      "outputs": [
        {
          "internalType": "uint256",
          "name": "",
          "type": "uint256"
        }
      ],
      "stateMutability": "view",
      "type": "function"
    },
    {
      "inputs": [],
      "name": "addDeposit",
      "outputs": [],
      "stateMutability": "payable",
      "type": "function"
    },
    {
      "inputs": [],
      "name": "entryPoint",
      "outputs": [
        {
          "internalType": "address",
          "name": "",
          "type": "address"
        }
      ],
      "stateMutability": "view",
      "type": "function"
    },
    {
      "inputs": [
        {
          "internalType": "address",
          "name": "dest",
          "type": "address"
        },
        {
          "internalType": "uint256",
          "name": "value",
          "type": "uint256"
        },
        {
          "internalType": "bytes",
          "name": "func",
          "type": "bytes"
        }
      ],
      "name": "execute",
      "outputs": [],
      "stateMutability": "nonpayable",
      "type": "function"
    },
    {
      "inputs": [
        {
          "internalType": "address[]",
          "name": "dest",
          "type": "address[]"
        },
        {
          "internalType": "uint256[]",
          "name": "value",
          "type": "uint256[]"
        },
        {
          "internalType": "bytes[]",
          "name": "func",
          "type": "bytes[]"
        }
      ],
      "name": "executeBatch",
      "outputs": [],
      "stateMutability": "nonpayable",
      "type": "function"
    },
    {
      "inputs": [],
      "name": "getDeposit",
      "outputs": [
        {
          "internalType": "uint256",
          "name": "",
          "type": "uint256"
        }
      ],
      "stateMutability": "view",
      "type": "function"
    },
    {
      "inputs": [
        {
          "internalType": "address",
          "name": "_owner",
          "type": "address"
        }
      ],
      "name": "initialize",
      "outputs": [],
      "stateMutability": "nonpayable",
      "type": "function"
    },
    {
      "inputs": [
        {
          "internalType": "address",
          "name": "caller",
          "type": "address"
        }
      ],
      "name": "isAuthorizedPaymaster",
      "outputs": [
        {
          "internalType": "bool",
          "name": "",
          "type": "bool"
        }
      ],
      "stateMutability": "view",
      "type": "function"
    },
    {
      "inputs": [],
      "name": "owner",
      "outputs": [
        {
          "internalType": "address",
          "name": "",
          "type": "address"
        }
      ],
      "stateMutability": "view",
      "type": "function"
    },
    {
      "inputs": [
        {
          "components": [
            {
              "internalType": "address",
              "name": "sender",
              "type": "address"
            },
            {
              "internalType": "uint256",
              "name": "nonce",
              "type": "uint256"
            },
            {
              "internalType": "bytes",
              "name": "initCode",
              "type": "bytes"
            },
            {
              "internalType": "bytes",
              "name": "callData",
              "type": "bytes"
            },
            {
              "internalType": "uint256",
              "name": "callGasLimit",
              "type": "uint256"
            },
            {
              "internalType": "uint256",
              "name": "verificationGasLimit",
              "type": "uint256"
            },
            {
              "internalType": "uint256",
              "name": "preVerificationGas",
              "type": "uint256"
            },
            {
              "internalType": "uint256",
              "name": "maxFeePerGas",
              "type": "uint256"
            },
            {
              "internalType": "uint256",
              "name": "maxPriorityFeePerGas",
              "type": "uint256"
            },
            {
              "internalType": "bytes",
              "name": "paymasterAndData",
              "type": "bytes"
            },
            {
              "internalType": "bytes",
              "name": "signature",
              "type": "bytes"
            }
          ],
          "internalType": "struct UserOperation",
          "name": "userOp",
          "type": "tuple"
        },
        {
          "internalType": "bytes32",
          "name": "userOpHash",
          "type": "bytes32"
        },
        {
          "internalType": "uint256",
          "name": "missingAccountFunds",
          "type": "uint256"
        }
      ],
      "name": "validateUserOp",
      "outputs": [
        {
          "internalType": "uint256",
          "name": "validationData",
          "type": "uint256"
        }
      ],
      "stateMutability": "nonpayable",
      "type": "function"
    },
    {
      "inputs": [
        {
          "internalType": "address payable",
          "name": "withdrawAddress",
          "type": "address"
        },
        {
          "internalType": "uint256",
          "name": "amount",
          "type": "uint256"
        }
      ],
      "name": "withdrawDepositTo",
      "outputs": [],
      "stateMutability": "nonpayable",
      "type": "function"
    },
    {
      "stateMutability": "payable",
      "type": "receive"
    }
  ],
  "bytecode": "0x60806040523480156200001157600080fd5b5060405162001eef38038062001eef8339818101604052810190620000379190620000e9565b80600160006101000a81548173ffffffffffffffffffffffffffffffffffffffff021916908373ffffffffffffffffffffffffffffffffffffffff160217905550506200011b565b600080fd5b600073ffffffffffffffffffffffffffffffffffffffff82169050919050565b6000620000b18262000084565b9050919050565b620000c381620000a4565b8114620000cf57600080fd5b50565b600081519050620000e381620000b8565b92915050565b6000602082840312156200010257620001016200007f565b5b60006200011284828501620000d2565b91505092915050565b611dc4806200012b6000396000f3fe6080604052600436106100a05760003560e01c80638da5cb5b116100645780638da5cb5b146101825780638f41ec5a146101ad578063b0d691fe146101d8578063b61d27f614610203578063c399ec881461022c578063c4d66de814610257576100a7565b80633a871cdd146100ac57806347e1da2a146100e95780634a58db19146101125780634d44560d1461011c578063847b6bcd14610145576100a7565b366100a757005b600080fd5b3480156100b857600080fd5b506100d360048036038101906100ce919061114a565b610280565b6040516100e091906111c8565b60405180910390f35b3480156100f557600080fd5b50610110600480360381019061010b91906112f4565b6104cf565b005b61011a610721565b005b34801561012857600080fd5b50610143600480360381019061013e9190611406565b6107f2565b005b34801561015157600080fd5b5061016c60048036038101906101679190611484565b6109e3565b60405161017991906114cc565b60405180910390f35b34801561018e57600080fd5b50610197610a1c565b6040516101a491906114f6565b60405180910390f35b3480156101b957600080fd5b506101c2610a40565b6040516101cf91906111c8565b60405180910390f35b3480156101e457600080fd5b506101ed610a45565b6040516101fa91906114f6565b60405180910390f35b34801561020f57600080fd5b5061022a60048036038101906102259190611567565b610a6b565b005b34801561023857600080fd5b50610241610ba6565b60405161024e91906111c8565b60405180910390f35b34801561026357600080fd5b5061027e60048036038101906102799190611484565b610be7565b005b6000600160009054906101000a900473ffffffffffffffffffffffffffffffffffffffff1673ffffffffffffffffffffffffffffffffffffffff163373ffffffffffffffffffffffffffffffffffffffff1614610312576040517f08c379a000000000000000000000000000000000000000000000000000000000815260040161030990611638565b60405180910390fd5b60008211156103ec5760003373ffffffffffffffffffffffffffffffffffffffff16837fffffffffffffffffffffffffffffffffffffffffffffffffffffffffffffffff9060405161036390611689565b600060405180830381858888f193505050503d80600081146103a1576040519150601f19603f3d011682016040523d82523d6000602084013e6103a6565b606091505b50509050806103ea576040517f08c379a00000000000000000000000000000000000000000000000000000000081526004016103e190611710565b60405180910390fd5b505b60006103f784610d35565b905060006104618680610140019061040f919061173f565b8080601f016020809104026020016040519081016040528093929190818152602001838380828437600081840152601f19601f8201169050808301925050505050505083610d6b90919063ffffffff16565b905060008054906101000a900473ffffffffffffffffffffffffffffffffffffffff1673ffffffffffffffffffffffffffffffffffffffff168173ffffffffffffffffffffffffffffffffffffffff16036104c1576000925050506104c8565b6001925050505b9392505050565b60008054906101000a900473ffffffffffffffffffffffffffffffffffffffff1673ffffffffffffffffffffffffffffffffffffffff163373ffffffffffffffffffffffffffffffffffffffff1614806105765750600160009054906101000a900473ffffffffffffffffffffffffffffffffffffffff1673ffffffffffffffffffffffffffffffffffffffff163373ffffffffffffffffffffffffffffffffffffffff16145b6105b5576040517f08c379a00000000000000000000000000000000000000000000000000000000081526004016105ac906117ee565b60405180910390fd5b8181905086869050146105fd576040517f08c379a00000000000000000000000000000000000000000000000000000000081526004016105f49061185a565b60405180910390fd5b838390508686905014610645576040517f08c379a000000000000000000000000000000000000000000000000000000000815260040161063c9061185a565b60405180910390fd5b60005b86869050811015610718576107058787838181106106695761066861187a565b5b905060200201602081019061067e9190611484565b8686848181106106915761069061187a565b5b905060200201358585858181106106ab576106aa61187a565b5b90506020028101906106bd919061173f565b8080601f016020809104026020016040519081016040528093929190818152602001838380828437600081840152601f19601f82011690508083019250505050505050610d92565b8080610710906118d8565b915050610648565b50505050505050565b6000600160009054906101000a900473ffffffffffffffffffffffffffffffffffffffff1673ffffffffffffffffffffffffffffffffffffffff163460405161076990611689565b60006040518083038185875af1925050503d80600081146107a6576040519150601f19603f3d011682016040523d82523d6000602084013e6107ab565b606091505b50509050806107ef576040517f08c379a00000000000000000000000000000000000000000000000000000000081526004016107e69061196c565b60405180910390fd5b50565b60008054906101000a900473ffffffffffffffffffffffffffffffffffffffff1673ffffffffffffffffffffffffffffffffffffffff163373ffffffffffffffffffffffffffffffffffffffff1614610880576040517f08c379a0000000000000000000000000000000000000000000000000000000008152600401610877906119d8565b60405180910390fd5b6000600160009054906101000a900473ffffffffffffffffffffffffffffffffffffffff1673ffffffffffffffffffffffffffffffffffffffff1683836040516024016108ce929190611a07565b6040516020818303038152906040527f205c2878000000000000000000000000000000000000000000000000000000007bffffffffffffffffffffffffffffffffffffffffffffffffffffffff19166020820180517bffffffffffffffffffffffffffffffffffffffffffffffffffffffff83818316178352505050506040516109589190611a96565b6000604051808303816000865af19150503d8060008114610995576040519150601f19603f3d011682016040523d82523d6000602084013e61099a565b606091505b50509050806109de576040517f08c379a00000000000000000000000000000000000000000000000000000000081526004016109d590611af9565b60405180910390fd5b505050565b60008073ffffffffffffffffffffffffffffffffffffffff168273ffffffffffffffffffffffffffffffffffffffff1614159050919050565b60008054906101000a900473ffffffffffffffffffffffffffffffffffffffff1681565b600181565b600160009054906101000a900473ffffffffffffffffffffffffffffffffffffffff1681565b60008054906101000a900473ffffffffffffffffffffffffffffffffffffffff1673ffffffffffffffffffffffffffffffffffffffff163373ffffffffffffffffffffffffffffffffffffffff161480610b125750600160009054906101000a900473ffffffffffffffffffffffffffffffffffffffff1673ffffffffffffffffffffffffffffffffffffffff163373ffffffffffffffffffffffffffffffffffffffff16145b610b51576040517f08c379a0000000000000000000000000000000000000000000000000000000008152600401610b48906117ee565b60405180910390fd5b610ba0848484848080601f016020809104026020016040519081016040528093929190818152602001838380828437600081840152601f19601f82011690508083019250505050505050610d92565b50505050565b6000600160009054906101000a900473ffffffffffffffffffffffffffffffffffffffff1673ffffffffffffffffffffffffffffffffffffffff1631905090565b600073ffffffffffffffffffffffffffffffffffffffff1660008054906101000a900473ffffffffffffffffffffffffffffffffffffffff1673ffffffffffffffffffffffffffffffffffffffff1614610c76576040517f08c379a0000000000000000000000000000000000000000000000000000000008152600401610c6d90611b65565b60405180910390fd5b806000806101000a81548173ffffffffffffffffffffffffffffffffffffffff021916908373ffffffffffffffffffffffffffffffffffffffff1602179055508073ffffffffffffffffffffffffffffffffffffffff16600160009054906101000a900473ffffffffffffffffffffffffffffffffffffffff1673ffffffffffffffffffffffffffffffffffffffff167f526ffefac8167421b9048ae3377810715d834479565b0182ea4155f0efa4c38060405160405180910390a350565b60007f19457468657265756d205369676e6564204d6573736167653a0a33320000000060005281601c52603c6000209050919050565b6000806000610d7a8585610e16565b91509150610d8781610e67565b819250505092915050565b6000808473ffffffffffffffffffffffffffffffffffffffff168484604051610dbb9190611a96565b60006040518083038185875af1925050503d8060008114610df8576040519150601f19603f3d011682016040523d82523d6000602084013e610dfd565b606091505b509150915081610e0f57805160208201fd5b5050505050565b6000806041835103610e575760008060006020860151925060408601519150606086015160001a9050610e4b87828585610fcd565b94509450505050610e60565b60006002915091505b9250929050565b60006004811115610e7b57610e7a611b85565b5b816004811115610e8e57610e8d611b85565b5b0315610fca5760016004811115610ea857610ea7611b85565b5b816004811115610ebb57610eba611b85565b5b03610efb576040517f08c379a0000000000000000000000000000000000000000000000000000000008152600401610ef290611c00565b60405180910390fd5b60026004811115610f0f57610f0e611b85565b5b816004811115610f2257610f21611b85565b5b03610f62576040517f08c379a0000000000000000000000000000000000000000000000000000000008152600401610f5990611c6c565b60405180910390fd5b60036004811115610f7657610f75611b85565b5b816004811115610f8957610f88611b85565b5b03610fc9576040517f08c379a0000000000000000000000000000000000000000000000000000000008152600401610fc090611cfe565b60405180910390fd5b5b50565b6000807f7fffffffffffffffffffffffffffffff5d576e7357a4501ddfe92f46681b20a08360001c11156110085760006003915091506110a6565b60006001878787876040516000815260200160405260405161102d9493929190611d49565b6020604051602081039080840390855afa15801561104f573d6000803e3d6000fd5b505050602060405103519050600073ffffffffffffffffffffffffffffffffffffffff168173ffffffffffffffffffffffffffffffffffffffff160361109d576000600192509250506110a6565b80600092509250505b94509492505050565b600080fd5b600080fd5b600080fd5b600061016082840312156110d5576110d46110b9565b5b81905092915050565b6000819050919050565b6110f1816110de565b81146110fc57600080fd5b50565b60008135905061110e816110e8565b92915050565b6000819050919050565b61112781611114565b811461113257600080fd5b50565b6000813590506111448161111e565b92915050565b600080600060608486031215611163576111626110af565b5b600084013567ffffffffffffffff811115611181576111806110b4565b5b61118d868287016110be565b935050602061119e868287016110ff565b92505060406111af86828701611135565b9150509250925092565b6111c281611114565b82525050565b60006020820190506111dd60008301846111b9565b92915050565b600080fd5b600080fd5b600080fd5b60008083601f840112611208576112076111e3565b5b8235905067ffffffffffffffff811115611225576112246111e8565b5b602083019150836020820283011115611241576112406111ed565b5b9250929050565b60008083601f84011261125e5761125d6111e3565b5b8235905067ffffffffffffffff81111561127b5761127a6111e8565b5b602083019150836020820283011115611297576112966111ed565b5b9250929050565b60008083601f8401126112b4576112b36111e3565b5b8235905067ffffffffffffffff8111156112d1576112d06111e8565b5b6020830191508360208202830111156112ed576112ec6111ed565b5b9250929050565b60008060008060008060608789031215611311576113106110af565b5b600087013567ffffffffffffffff81111561132f5761132e6110b4565b5b61133b89828a016111f2565b9650965050602087013567ffffffffffffffff81111561135e5761135d6110b4565b5b61136a89828a01611248565b9450945050604087013567ffffffffffffffff81111561138d5761138c6110b4565b5b61139989828a0161129e565b92509250509295509295509295565b600073ffffffffffffffffffffffffffffffffffffffff82169050919050565b60006113d3826113a8565b9050919050565b6113e3816113c8565b81146113ee57600080fd5b50565b600081359050611400816113da565b92915050565b6000806040838503121561141d5761141c6110af565b5b600061142b858286016113f1565b925050602061143c85828601611135565b9150509250929050565b6000611451826113a8565b9050919050565b61146181611446565b811461146c57600080fd5b50565b60008135905061147e81611458565b92915050565b60006020828403121561149a576114996110af565b5b60006114a88482850161146f565b91505092915050565b60008115159050919050565b6114c6816114b1565b82525050565b60006020820190506114e160008301846114bd565b92915050565b6114f081611446565b82525050565b600060208201905061150b60008301846114e7565b92915050565b60008083601f840112611527576115266111e3565b5b8235905067ffffffffffffffff811115611544576115436111e8565b5b6020830191508360018202830111156115605761155f6111ed565b5b9250929050565b60008060008060608587031215611581576115806110af565b5b600061158f8782880161146f565b94505060206115a087828801611135565b935050604085013567ffffffffffffffff8111156115c1576115c06110b4565b5b6115cd87828801611511565b925092505092959194509250565b600082825260208201905092915050565b7f4163636f756e743a206e6f742066726f6d20456e747279506f696e7400000000600082015250565b6000611622601c836115db565b915061162d826115ec565b602082019050919050565b6000602082019050818103600083015261165181611615565b9050919050565b600081905092915050565b50565b6000611673600083611658565b915061167e82611663565b600082019050919050565b600061169482611666565b9150819050919050565b7f4163636f756e743a206661696c656420746f2070726566756e6420456e74727960008201527f506f696e74000000000000000000000000000000000000000000000000000000602082015250565b60006116fa6025836115db565b91506117058261169e565b604082019050919050565b60006020820190508181036000830152611729816116ed565b9050919050565b600080fd5b600080fd5b600080fd5b6000808335600160200384360303811261175c5761175b611730565b5b80840192508235915067ffffffffffffffff82111561177e5761177d611735565b5b60208301925060018202360383131561179a5761179961173a565b5b509250929050565b7f4e6f7420617574686f72697a6564000000000000000000000000000000000000600082015250565b60006117d8600e836115db565b91506117e3826117a2565b602082019050919050565b60006020820190508181036000830152611807816117cb565b9050919050565b7f57726f6e67206172726179206c656e6774687300000000000000000000000000600082015250565b60006118446013836115db565b915061184f8261180e565b602082019050919050565b6000602082019050818103600083015261187381611837565b9050919050565b7f4e487b7100000000000000000000000000000000000000000000000000000000600052603260045260246000fd5b7f4e487b7100000000000000000000000000000000000000000000000000000000600052601160045260246000fd5b60006118e382611114565b91507fffffffffffffffffffffffffffffffffffffffffffffffffffffffffffffffff8203611915576119146118a9565b5b600182019050919050565b7f4465706f736974206661696c6564000000000000000000000000000000000000600082015250565b6000611956600e836115db565b915061196182611920565b602082019050919050565b6000602082019050818103600083015261198581611949565b9050919050565b7f4e6f74206f776e65720000000000000000000000000000000000000000000000600082015250565b60006119c26009836115db565b91506119cd8261198c565b602082019050919050565b600060208201905081810360008301526119f1816119b5565b9050919050565b611a01816113c8565b82525050565b6000604082019050611a1c60008301856119f8565b611a2960208301846111b9565b9392505050565b600081519050919050565b60005b83811015611a59578082015181840152602081019050611a3e565b60008484015250505050565b6000611a7082611a30565b611a7a8185611658565b9350611a8a818560208601611a3b565b80840191505092915050565b6000611aa28284611a65565b915081905092915050565b7f5769746864726177206661696c65640000000000000000000000000000000000600082015250565b6000611ae3600f836115db565b9150611aee82611aad565b602082019050919050565b60006020820190508181036000830152611b1281611ad6565b9050919050565b7f416c726561647920696e697469616c697a656400000000000000000000000000600082015250565b6000611b4f6013836115db565b9150611b5a82611b19565b602082019050919050565b60006020820190508181036000830152611b7e81611b42565b9050919050565b7f4e487b7100000000000000000000000000000000000000000000000000000000600052602160045260246000fd5b7f45434453413a20696e76616c6964207369676e61747572650000000000000000600082015250565b6000611bea6018836115db565b9150611bf582611bb4565b602082019050919050565b60006020820190508181036000830152611c1981611bdd565b9050919050565b7f45434453413a20696e76616c6964207369676e6174757265206c656e67746800600082015250565b6000611c56601f836115db565b9150611c6182611c20565b602082019050919050565b60006020820190508181036000830152611c8581611c49565b9050919050565b7f45434453413a20696e76616c6964207369676e6174757265202773272076616c60008201527f7565000000000000000000000000000000000000000000000000000000000000602082015250565b6000611ce86022836115db565b9150611cf382611c8c565b604082019050919050565b60006020820190508181036000830152611d1781611cdb565b9050919050565b611d27816110de565b82525050565b600060ff82169050919050565b611d4381611d2d565b82525050565b6000608082019050611d5e6000830187611d1e565b611d6b6020830186611d3a565b611d786040830185611d1e565b611d856060830184611d1e565b9594505050505056fea2646970667358221220b44303061ff05bc5c4b9a86bae6c9e18271c105a61549b1c5e373e150eb827e364736f6c63430008140033",
  "linkReferences": {},
  "deployedLinkReferences": {}
}