{
  "_format": "hh-sol-artifact-1",
  "contractName": "SimpleAdvancedAccountFactory",
  "sourceName": "contracts/SimpleAdvancedAccountFactory.sol",
  "abi": [
    {
      "inputs": [
        {
          "internalType": "address",
          "name": "_entryPoint",
          "type": "address"
        }
      ],
      "stateMutability": "nonpayable",
      "type": "constructor"
    },
    {
      "anonymous": false,
      "inputs": [
        {
          "indexed": true,
          "internalType": "address",
          "name": "account",
          "type": "address"
        },
        {
          "indexed": true,
          "internalType": "address",
          "name": "owner",
          "type": "address"
        },
        {
          "indexed": false,
          "internalType": "uint256",
          "name": "salt",
          "type": "uint256"
        }
      ],
      "name": "AccountCreated",
      "type": "event"
    },
    {
      "inputs": [
        {
          "internalType": "address",
          "name": "owner",
          "type": "address"
        },
        {
          "internalType": "uint256",
          "name": "salt",
          "type": "uint256"
        }
      ],
      "name": "createAccount",
      "outputs": [
        {
          "internalType": "address",
          "name": "accountAddress",
          "type": "address"
        }
      ],
      "stateMutability": "nonpayable",
      "type": "function"
    },
    {
      "inputs": [],
      "name": "entryPoint",
      "outputs": [
        {
          "internalType": "address",
          "name": "",
          "type": "address"
        }
      ],
      "stateMutability": "view",
      "type": "function"
    },
    {
      "inputs": [
        {
          "internalType": "address",
          "name": "owner",
          "type": "address"
        },
        {
          "internalType": "uint256",
          "name": "salt",
          "type": "uint256"
        }
      ],
      "name": "getAddress",
      "outputs": [
        {
          "internalType": "address",
          "name": "",
          "type": "address"
        }
      ],
      "stateMutability": "view",
      "type": "function"
    }
  ],
  "bytecode": "0x60a060405234801561001057600080fd5b50604051612b96380380612b96833981810160405281019061003291906100cf565b8073ffffffffffffffffffffffffffffffffffffffff1660808173ffffffffffffffffffffffffffffffffffffffff1681525050506100fc565b600080fd5b600073ffffffffffffffffffffffffffffffffffffffff82169050919050565b600061009c82610071565b9050919050565b6100ac81610091565b81146100b757600080fd5b50565b6000815190506100c9816100a3565b92915050565b6000602082840312156100e5576100e461006c565b5b60006100f3848285016100ba565b91505092915050565b608051612a726101246000396000818160ed015281816102a101526103200152612a726000f3fe608060405234801561001057600080fd5b50600436106100415760003560e01c80635fbfb9cf146100465780638cb84e1814610076578063b0d691fe146100a6575b600080fd5b610060600480360381019061005b9190610532565b6100c4565b60405161006d9190610581565b60405180910390f35b610090600480360381019061008b9190610532565b610278565b60405161009d9190610581565b60405180910390f35b6100ae61031e565b6040516100bb9190610581565b60405180910390f35b600080604051806020016100d79061048c565b6020820181038252601f19601f820116604052507f000000000000000000000000000000000000000000000000000000000000000060405160200161011c9190610581565b60405160208183030381529060405260405160200161013c92919061060d565b60405160208183030381529060405290506101618360001b8280519060200120610342565b915060008273ffffffffffffffffffffffffffffffffffffffff163b11156101895750610272565b600061019a60008560001b84610357565b90508073ffffffffffffffffffffffffffffffffffffffff1663c4d66de8866040518263ffffffff1660e01b81526004016101d59190610581565b600060405180830381600087803b1580156101ef57600080fd5b505af1158015610203573d6000803e3d6000fd5b505050508473ffffffffffffffffffffffffffffffffffffffff168173ffffffffffffffffffffffffffffffffffffffff167f33310a89c32d8cc00057ad6ef6274d2f8fe22389a992cf89983e09fc84f6cfff866040516102649190610640565b60405180910390a380925050505b92915050565b6000806040518060200161028b9061048c565b6020820181038252601f19601f820116604052507f00000000000000000000000000000000000000000000000000000000000000006040516020016102d09190610581565b6040516020818303038152906040526040516020016102f092919061060d565b60405160208183030381529060405290506103158360001b8280519060200120610342565b91505092915050565b7f000000000000000000000000000000000000000000000000000000000000000081565b600061034f838330610461565b905092915050565b60008347101561039c576040517f08c379a0000000000000000000000000000000000000000000000000000000008152600401610393906106b8565b60405180910390fd5b60008251036103e0576040517f08c379a00000000000000000000000000000000000000000000000000000000081526004016103d790610724565b60405180910390fd5b8282516020840186f59050600073ffffffffffffffffffffffffffffffffffffffff168173ffffffffffffffffffffffffffffffffffffffff160361045a576040517f08c379a000000000000000000000000000000000000000000000000000000000815260040161045190610790565b60405180910390fd5b9392505050565b6000604051836040820152846020820152828152600b810160ff815360558120925050509392505050565b61228c806107b183390190565b600080fd5b600073ffffffffffffffffffffffffffffffffffffffff82169050919050565b60006104c98261049e565b9050919050565b6104d9816104be565b81146104e457600080fd5b50565b6000813590506104f6816104d0565b92915050565b6000819050919050565b61050f816104fc565b811461051a57600080fd5b50565b60008135905061052c81610506565b92915050565b6000806040838503121561054957610548610499565b5b6000610557858286016104e7565b92505060206105688582860161051d565b9150509250929050565b61057b816104be565b82525050565b60006020820190506105966000830184610572565b92915050565b600081519050919050565b600081905092915050565b60005b838110156105d05780820151818401526020810190506105b5565b60008484015250505050565b60006105e78261059c565b6105f181856105a7565b93506106018185602086016105b2565b80840191505092915050565b600061061982856105dc565b915061062582846105dc565b91508190509392505050565b61063a816104fc565b82525050565b60006020820190506106556000830184610631565b92915050565b600082825260208201905092915050565b7f437265617465323a20696e73756666696369656e742062616c616e6365000000600082015250565b60006106a2601d8361065b565b91506106ad8261066c565b602082019050919050565b600060208201905081810360008301526106d181610695565b9050919050565b7f437265617465323a2062797465636f6465206c656e677468206973207a65726f600082015250565b600061070e60208361065b565b9150610719826106d8565b602082019050919050565b6000602082019050818103600083015261073d81610701565b9050919050565b7f437265617465323a204661696c6564206f6e206465706c6f7900000000000000600082015250565b600061077a60198361065b565b915061078582610744565b602082019050919050565b600060208201905081810360008301526107a98161076d565b905091905056fe60806040523480156200001157600080fd5b506040516200228c3803806200228c8339818101604052810190620000379190620000e9565b80600160006101000a81548173ffffffffffffffffffffffffffffffffffffffff021916908373ffffffffffffffffffffffffffffffffffffffff160217905550506200011b565b600080fd5b600073ffffffffffffffffffffffffffffffffffffffff82169050919050565b6000620000b18262000084565b9050919050565b620000c381620000a4565b8114620000cf57600080fd5b50565b600081519050620000e381620000b8565b92915050565b6000602082840312156200010257620001016200007f565b5b60006200011284828501620000d2565b91505092915050565b612161806200012b6000396000f3fe6080604052600436106100e15760003560e01c80638da5cb5b1161007f578063b61d27f611610059578063b61d27f6146102aa578063c399ec88146102d3578063c4d66de8146102fe578063e71bdf4114610327576100e8565b80638da5cb5b146102295780638f41ec5a14610254578063b0d691fe1461027f576100e8565b80634d44560d116100bb5780634d44560d1461015d578063587cde1e1461018657806367e7646f146101c3578063847b6bcd146101ec576100e8565b80633a871cdd146100ed57806347e1da2a1461012a5780634a58db1914610153576100e8565b366100e857005b600080fd5b3480156100f957600080fd5b50610114600480360381019061010f91906114e7565b610350565b6040516101219190611565565b60405180910390f35b34801561013657600080fd5b50610151600480360381019061014c9190611691565b6105f4565b005b61015b610846565b005b34801561016957600080fd5b50610184600480360381019061017f91906117a3565b610917565b005b34801561019257600080fd5b506101ad60048036038101906101a89190611821565b610b08565b6040516101ba9190611869565b60405180910390f35b3480156101cf57600080fd5b506101ea60048036038101906101e59190611821565b610b28565b005b3480156101f857600080fd5b50610213600480360381019061020e9190611821565b610c54565b6040516102209190611869565b60405180910390f35b34801561023557600080fd5b5061023e610c8d565b60405161024b9190611893565b60405180910390f35b34801561026057600080fd5b50610269610cb1565b6040516102769190611565565b60405180910390f35b34801561028b57600080fd5b50610294610cb6565b6040516102a19190611893565b60405180910390f35b3480156102b657600080fd5b506102d160048036038101906102cc9190611904565b610cdc565b005b3480156102df57600080fd5b506102e8610e17565b6040516102f59190611565565b60405180910390f35b34801561030a57600080fd5b5061032560048036038101906103209190611821565b610e58565b005b34801561033357600080fd5b5061034e60048036038101906103499190611821565b610fa6565b005b6000600160009054906101000a900473ffffffffffffffffffffffffffffffffffffffff1673ffffffffffffffffffffffffffffffffffffffff163373ffffffffffffffffffffffffffffffffffffffff16146103e2576040517f08c379a00000000000000000000000000000000000000000000000000000000081526004016103d9906119d5565b60405180910390fd5b60008211156104bc5760003373ffffffffffffffffffffffffffffffffffffffff16837fffffffffffffffffffffffffffffffffffffffffffffffffffffffffffffffff9060405161043390611a26565b600060405180830381858888f193505050503d8060008114610471576040519150601f19603f3d011682016040523d82523d6000602084013e610476565b606091505b50509050806104ba576040517f08c379a00000000000000000000000000000000000000000000000000000000081526004016104b190611aad565b60405180910390fd5b505b60006104c7846110d2565b90506000610531868061014001906104df9190611adc565b8080601f016020809104026020016040519081016040528093929190818152602001838380828437600081840152601f19601f820116905080830192505050505050508361110890919063ffffffff16565b905060008054906101000a900473ffffffffffffffffffffffffffffffffffffffff1673ffffffffffffffffffffffffffffffffffffffff168173ffffffffffffffffffffffffffffffffffffffff1614806105d65750600260008273ffffffffffffffffffffffffffffffffffffffff1673ffffffffffffffffffffffffffffffffffffffff16815260200190815260200160002060009054906101000a900460ff165b156105e6576000925050506105ed565b6001925050505b9392505050565b60008054906101000a900473ffffffffffffffffffffffffffffffffffffffff1673ffffffffffffffffffffffffffffffffffffffff163373ffffffffffffffffffffffffffffffffffffffff16148061069b5750600160009054906101000a900473ffffffffffffffffffffffffffffffffffffffff1673ffffffffffffffffffffffffffffffffffffffff163373ffffffffffffffffffffffffffffffffffffffff16145b6106da576040517f08c379a00000000000000000000000000000000000000000000000000000000081526004016106d190611b8b565b60405180910390fd5b818190508686905014610722576040517f08c379a000000000000000000000000000000000000000000000000000000000815260040161071990611bf7565b60405180910390fd5b83839050868690501461076a576040517f08c379a000000000000000000000000000000000000000000000000000000000815260040161076190611bf7565b60405180910390fd5b60005b8686905081101561083d5761082a87878381811061078e5761078d611c17565b5b90506020020160208101906107a39190611821565b8686848181106107b6576107b5611c17565b5b905060200201358585858181106107d0576107cf611c17565b5b90506020028101906107e29190611adc565b8080601f016020809104026020016040519081016040528093929190818152602001838380828437600081840152601f19601f8201169050808301925050505050505061112f565b808061083590611c75565b91505061076d565b50505050505050565b6000600160009054906101000a900473ffffffffffffffffffffffffffffffffffffffff1673ffffffffffffffffffffffffffffffffffffffff163460405161088e90611a26565b60006040518083038185875af1925050503d80600081146108cb576040519150601f19603f3d011682016040523d82523d6000602084013e6108d0565b606091505b5050905080610914576040517f08c379a000000000000000000000000000000000000000000000000000000000815260040161090b90611d09565b60405180910390fd5b50565b60008054906101000a900473ffffffffffffffffffffffffffffffffffffffff1673ffffffffffffffffffffffffffffffffffffffff163373ffffffffffffffffffffffffffffffffffffffff16146109a5576040517f08c379a000000000000000000000000000000000000000000000000000000000815260040161099c90611d75565b60405180910390fd5b6000600160009054906101000a900473ffffffffffffffffffffffffffffffffffffffff1673ffffffffffffffffffffffffffffffffffffffff1683836040516024016109f3929190611da4565b6040516020818303038152906040527f205c2878000000000000000000000000000000000000000000000000000000007bffffffffffffffffffffffffffffffffffffffffffffffffffffffff19166020820180517bffffffffffffffffffffffffffffffffffffffffffffffffffffffff8381831617835250505050604051610a7d9190611e33565b6000604051808303816000865af19150503d8060008114610aba576040519150601f19603f3d011682016040523d82523d6000602084013e610abf565b606091505b5050905080610b03576040517f08c379a0000000000000000000000000000000000000000000000000000000008152600401610afa90611e96565b60405180910390fd5b505050565b60026020528060005260406000206000915054906101000a900460ff1681565b60008054906101000a900473ffffffffffffffffffffffffffffffffffffffff1673ffffffffffffffffffffffffffffffffffffffff163373ffffffffffffffffffffffffffffffffffffffff1614610bb6576040517f08c379a0000000000000000000000000000000000000000000000000000000008152600401610bad90611d75565b60405180910390fd5b6000600260008373ffffffffffffffffffffffffffffffffffffffff1673ffffffffffffffffffffffffffffffffffffffff16815260200190815260200160002060006101000a81548160ff0219169083151502179055508073ffffffffffffffffffffffffffffffffffffffff167f5a362b199d4fb2bd4e51a3436d86df24cb19b1b0890da774e2b54253d53aa4eb60405160405180910390a250565b60008073ffffffffffffffffffffffffffffffffffffffff168273ffffffffffffffffffffffffffffffffffffffff1614159050919050565b60008054906101000a900473ffffffffffffffffffffffffffffffffffffffff1681565b600181565b600160009054906101000a900473ffffffffffffffffffffffffffffffffffffffff1681565b60008054906101000a900473ffffffffffffffffffffffffffffffffffffffff1673ffffffffffffffffffffffffffffffffffffffff163373ffffffffffffffffffffffffffffffffffffffff161480610d835750600160009054906101000a900473ffffffffffffffffffffffffffffffffffffffff1673ffffffffffffffffffffffffffffffffffffffff163373ffffffffffffffffffffffffffffffffffffffff16145b610dc2576040517f08c379a0000000000000000000000000000000000000000000000000000000008152600401610db990611b8b565b60405180910390fd5b610e11848484848080601f016020809104026020016040519081016040528093929190818152602001838380828437600081840152601f19601f8201169050808301925050505050505061112f565b50505050565b6000600160009054906101000a900473ffffffffffffffffffffffffffffffffffffffff1673ffffffffffffffffffffffffffffffffffffffff1631905090565b600073ffffffffffffffffffffffffffffffffffffffff1660008054906101000a900473ffffffffffffffffffffffffffffffffffffffff1673ffffffffffffffffffffffffffffffffffffffff1614610ee7576040517f08c379a0000000000000000000000000000000000000000000000000000000008152600401610ede90611f02565b60405180910390fd5b806000806101000a81548173ffffffffffffffffffffffffffffffffffffffff021916908373ffffffffffffffffffffffffffffffffffffffff1602179055508073ffffffffffffffffffffffffffffffffffffffff16600160009054906101000a900473ffffffffffffffffffffffffffffffffffffffff1673ffffffffffffffffffffffffffffffffffffffff167f526ffefac8167421b9048ae3377810715d834479565b0182ea4155f0efa4c38060405160405180910390a350565b60008054906101000a900473ffffffffffffffffffffffffffffffffffffffff1673ffffffffffffffffffffffffffffffffffffffff163373ffffffffffffffffffffffffffffffffffffffff1614611034576040517f08c379a000000000000000000000000000000000000000000000000000000000815260040161102b90611d75565b60405180910390fd5b6001600260008373ffffffffffffffffffffffffffffffffffffffff1673ffffffffffffffffffffffffffffffffffffffff16815260200190815260200160002060006101000a81548160ff0219169083151502179055508073ffffffffffffffffffffffffffffffffffffffff167f3be018e2afae1fe2bb23bb3cc019524cfe3872f2863d1c80b7a228c57bc1065a60405160405180910390a250565b60007f19457468657265756d205369676e6564204d6573736167653a0a33320000000060005281601c52603c6000209050919050565b600080600061111785856111b3565b9150915061112481611204565b819250505092915050565b6000808473ffffffffffffffffffffffffffffffffffffffff1684846040516111589190611e33565b60006040518083038185875af1925050503d8060008114611195576040519150601f19603f3d011682016040523d82523d6000602084013e61119a565b606091505b5091509150816111ac57805160208201fd5b5050505050565b60008060418351036111f45760008060006020860151925060408601519150606086015160001a90506111e88782858561136a565b945094505050506111fd565b60006002915091505b9250929050565b6000600481111561121857611217611f22565b5b81600481111561122b5761122a611f22565b5b0315611367576001600481111561124557611244611f22565b5b81600481111561125857611257611f22565b5b03611298576040517f08c379a000000000000000000000000000000000000000000000000000000000815260040161128f90611f9d565b60405180910390fd5b600260048111156112ac576112ab611f22565b5b8160048111156112bf576112be611f22565b5b036112ff576040517f08c379a00000000000000000000000000000000000000000000000000000000081526004016112f690612009565b60405180910390fd5b6003600481111561131357611312611f22565b5b81600481111561132657611325611f22565b5b03611366576040517f08c379a000000000000000000000000000000000000000000000000000000000815260040161135d9061209b565b60405180910390fd5b5b50565b6000807f7fffffffffffffffffffffffffffffff5d576e7357a4501ddfe92f46681b20a08360001c11156113a5576000600391509150611443565b6000600187878787604051600081526020016040526040516113ca94939291906120e6565b6020604051602081039080840390855afa1580156113ec573d6000803e3d6000fd5b505050602060405103519050600073ffffffffffffffffffffffffffffffffffffffff168173ffffffffffffffffffffffffffffffffffffffff160361143a57600060019250925050611443565b80600092509250505b94509492505050565b600080fd5b600080fd5b600080fd5b6000610160828403121561147257611471611456565b5b81905092915050565b6000819050919050565b61148e8161147b565b811461149957600080fd5b50565b6000813590506114ab81611485565b92915050565b6000819050919050565b6114c4816114b1565b81146114cf57600080fd5b50565b6000813590506114e1816114bb565b92915050565b600080600060608486031215611500576114ff61144c565b5b600084013567ffffffffffffffff81111561151e5761151d611451565b5b61152a8682870161145b565b935050602061153b8682870161149c565b925050604061154c868287016114d2565b9150509250925092565b61155f816114b1565b82525050565b600060208201905061157a6000830184611556565b92915050565b600080fd5b600080fd5b600080fd5b60008083601f8401126115a5576115a4611580565b5b8235905067ffffffffffffffff8111156115c2576115c1611585565b5b6020830191508360208202830111156115de576115dd61158a565b5b9250929050565b60008083601f8401126115fb576115fa611580565b5b8235905067ffffffffffffffff81111561161857611617611585565b5b6020830191508360208202830111156116345761163361158a565b5b9250929050565b60008083601f84011261165157611650611580565b5b8235905067ffffffffffffffff81111561166e5761166d611585565b5b60208301915083602082028301111561168a5761168961158a565b5b9250929050565b600080600080600080606087890312156116ae576116ad61144c565b5b600087013567ffffffffffffffff8111156116cc576116cb611451565b5b6116d889828a0161158f565b9650965050602087013567ffffffffffffffff8111156116fb576116fa611451565b5b61170789828a016115e5565b9450945050604087013567ffffffffffffffff81111561172a57611729611451565b5b61173689828a0161163b565b92509250509295509295509295565b600073ffffffffffffffffffffffffffffffffffffffff82169050919050565b600061177082611745565b9050919050565b61178081611765565b811461178b57600080fd5b50565b60008135905061179d81611777565b92915050565b600080604083850312156117ba576117b961144c565b5b60006117c88582860161178e565b92505060206117d9858286016114d2565b9150509250929050565b60006117ee82611745565b9050919050565b6117fe816117e3565b811461180957600080fd5b50565b60008135905061181b816117f5565b92915050565b6000602082840312156118375761183661144c565b5b60006118458482850161180c565b91505092915050565b60008115159050919050565b6118638161184e565b82525050565b600060208201905061187e600083018461185a565b92915050565b61188d816117e3565b82525050565b60006020820190506118a86000830184611884565b92915050565b60008083601f8401126118c4576118c3611580565b5b8235905067ffffffffffffffff8111156118e1576118e0611585565b5b6020830191508360018202830111156118fd576118fc61158a565b5b9250929050565b6000806000806060858703121561191e5761191d61144c565b5b600061192c8782880161180c565b945050602061193d878288016114d2565b935050604085013567ffffffffffffffff81111561195e5761195d611451565b5b61196a878288016118ae565b925092505092959194509250565b600082825260208201905092915050565b7f4163636f756e743a206e6f742066726f6d20456e747279506f696e7400000000600082015250565b60006119bf601c83611978565b91506119ca82611989565b602082019050919050565b600060208201905081810360008301526119ee816119b2565b9050919050565b600081905092915050565b50565b6000611a106000836119f5565b9150611a1b82611a00565b600082019050919050565b6000611a3182611a03565b9150819050919050565b7f4163636f756e743a206661696c656420746f2070726566756e6420456e74727960008201527f506f696e74000000000000000000000000000000000000000000000000000000602082015250565b6000611a97602583611978565b9150611aa282611a3b565b604082019050919050565b60006020820190508181036000830152611ac681611a8a565b9050919050565b600080fd5b600080fd5b600080fd5b60008083356001602003843603038112611af957611af8611acd565b5b80840192508235915067ffffffffffffffff821115611b1b57611b1a611ad2565b5b602083019250600182023603831315611b3757611b36611ad7565b5b509250929050565b7f4e6f7420617574686f72697a6564000000000000000000000000000000000000600082015250565b6000611b75600e83611978565b9150611b8082611b3f565b602082019050919050565b60006020820190508181036000830152611ba481611b68565b9050919050565b7f57726f6e67206172726179206c656e6774687300000000000000000000000000600082015250565b6000611be1601383611978565b9150611bec82611bab565b602082019050919050565b60006020820190508181036000830152611c1081611bd4565b9050919050565b7f4e487b7100000000000000000000000000000000000000000000000000000000600052603260045260246000fd5b7f4e487b7100000000000000000000000000000000000000000000000000000000600052601160045260246000fd5b6000611c80826114b1565b91507fffffffffffffffffffffffffffffffffffffffffffffffffffffffffffffffff8203611cb257611cb1611c46565b5b600182019050919050565b7f4465706f736974206661696c6564000000000000000000000000000000000000600082015250565b6000611cf3600e83611978565b9150611cfe82611cbd565b602082019050919050565b60006020820190508181036000830152611d2281611ce6565b9050919050565b7f4e6f74206f776e65720000000000000000000000000000000000000000000000600082015250565b6000611d5f600983611978565b9150611d6a82611d29565b602082019050919050565b60006020820190508181036000830152611d8e81611d52565b9050919050565b611d9e81611765565b82525050565b6000604082019050611db96000830185611d95565b611dc66020830184611556565b9392505050565b600081519050919050565b60005b83811015611df6578082015181840152602081019050611ddb565b60008484015250505050565b6000611e0d82611dcd565b611e1781856119f5565b9350611e27818560208601611dd8565b80840191505092915050565b6000611e3f8284611e02565b915081905092915050565b7f5769746864726177206661696c65640000000000000000000000000000000000600082015250565b6000611e80600f83611978565b9150611e8b82611e4a565b602082019050919050565b60006020820190508181036000830152611eaf81611e73565b9050919050565b7f416c726561647920696e697469616c697a656400000000000000000000000000600082015250565b6000611eec601383611978565b9150611ef782611eb6565b602082019050919050565b60006020820190508181036000830152611f1b81611edf565b9050919050565b7f4e487b7100000000000000000000000000000000000000000000000000000000600052602160045260246000fd5b7f45434453413a20696e76616c6964207369676e61747572650000000000000000600082015250565b6000611f87601883611978565b9150611f9282611f51565b602082019050919050565b60006020820190508181036000830152611fb681611f7a565b9050919050565b7f45434453413a20696e76616c6964207369676e6174757265206c656e67746800600082015250565b6000611ff3601f83611978565b9150611ffe82611fbd565b602082019050919050565b6000602082019050818103600083015261202281611fe6565b9050919050565b7f45434453413a20696e76616c6964207369676e6174757265202773272076616c60008201527f7565000000000000000000000000000000000000000000000000000000000000602082015250565b6000612085602283611978565b915061209082612029565b604082019050919050565b600060208201905081810360008301526120b481612078565b9050919050565b6120c48161147b565b82525050565b600060ff82169050919050565b6120e0816120ca565b82525050565b60006080820190506120fb60008301876120bb565b61210860208301866120d7565b61211560408301856120bb565b61212260608301846120bb565b9594505050505056fea2646970667358221220f98bb8a2c37325833f8d64fe9be2a32a58401dfc71e8c60ced53a0d814afe99e64736f6c63430008140033a26469706673582212200a74ac4283d65e21893e69a5d6dc9e1ebfb35ca176309f17cdb3b3aec71d849e64736f6c63430008140033",
  "linkReferences": {},
  "deployedLinkReferences": {}
}