{
  "_format": "hh-sol-artifact-1",
  "contractName": "SimpleVerifyingPaymaster",
  "sourceName": "contracts/SimpleVerifyingPaymaster.sol",
  "abi": [
    {
      "inputs": [
        {
          "internalType": "address",
          "name": "_entryPoint",
          "type": "address"
        },
        {
          "internalType": "address",
          "name": "_verifyingSigner",
          "type": "address"
        }
      ],
      "stateMutability": "nonpayable",
      "type": "constructor"
    },
    {
      "anonymous": false,
      "inputs": [
        {
          "indexed": true,
          "internalType": "address",
          "name": "account",
          "type": "address"
        }
      ],
      "name": "AccountSponsored",
      "type": "event"
    },
    {
      "anonymous": false,
      "inputs": [
        {
          "indexed": true,
          "internalType": "address",
          "name": "account",
          "type": "address"
        }
      ],
      "name": "AccountUnsponsored",
      "type": "event"
    },
    {
      "anonymous": false,
      "inputs": [
        {
          "indexed": true,
          "internalType": "address",
          "name": "previousOwner",
          "type": "address"
        },
        {
          "indexed": true,
          "internalType": "address",
          "name": "newOwner",
          "type": "address"
        }
      ],
      "name": "OwnershipTransferred",
      "type": "event"
    },
    {
      "anonymous": false,
      "inputs": [
        {
          "indexed": true,
          "internalType": "address",
          "name": "previousSigner",
          "type": "address"
        },
        {
          "indexed": true,
          "internalType": "address",
          "name": "newSigner",
          "type": "address"
        }
      ],
      "name": "VerifyingSignerChanged",
      "type": "event"
    },
    {
      "inputs": [],
      "name": "deposit",
      "outputs": [],
      "stateMutability": "payable",
      "type": "function"
    },
    {
      "inputs": [],
      "name": "entryPoint",
      "outputs": [
        {
          "internalType": "address",
          "name": "",
          "type": "address"
        }
      ],
      "stateMutability": "view",
      "type": "function"
    },
    {
      "inputs": [],
      "name": "getBalance",
      "outputs": [
        {
          "internalType": "uint256",
          "name": "",
          "type": "uint256"
        }
      ],
      "stateMutability": "view",
      "type": "function"
    },
    {
      "inputs": [],
      "name": "owner",
      "outputs": [
        {
          "internalType": "address",
          "name": "",
          "type": "address"
        }
      ],
      "stateMutability": "view",
      "type": "function"
    },
    {
      "inputs": [
        {
          "internalType": "enum IPaymaster.PostOpMode",
          "name": "mode",
          "type": "uint8"
        },
        {
          "internalType": "bytes",
          "name": "context",
          "type": "bytes"
        },
        {
          "internalType": "uint256",
          "name": "actualGasCost",
          "type": "uint256"
        }
      ],
      "name": "postOp",
      "outputs": [],
      "stateMutability": "nonpayable",
      "type": "function"
    },
    {
      "inputs": [],
      "name": "renounceOwnership",
      "outputs": [],
      "stateMutability": "nonpayable",
      "type": "function"
    },
    {
      "inputs": [
        {
          "internalType": "address",
          "name": "_newSigner",
          "type": "address"
        }
      ],
      "name": "setVerifyingSigner",
      "outputs": [],
      "stateMutability": "nonpayable",
      "type": "function"
    },
    {
      "inputs": [
        {
          "internalType": "address",
          "name": "account",
          "type": "address"
        }
      ],
      "name": "sponsorAccount",
      "outputs": [],
      "stateMutability": "nonpayable",
      "type": "function"
    },
    {
      "inputs": [
        {
          "internalType": "address",
          "name": "",
          "type": "address"
        }
      ],
      "name": "sponsoredAccounts",
      "outputs": [
        {
          "internalType": "bool",
          "name": "",
          "type": "bool"
        }
      ],
      "stateMutability": "view",
      "type": "function"
    },
    {
      "inputs": [
        {
          "internalType": "address",
          "name": "newOwner",
          "type": "address"
        }
      ],
      "name": "transferOwnership",
      "outputs": [],
      "stateMutability": "nonpayable",
      "type": "function"
    },
    {
      "inputs": [
        {
          "internalType": "address",
          "name": "account",
          "type": "address"
        }
      ],
      "name": "unsponsorAccount",
      "outputs": [],
      "stateMutability": "nonpayable",
      "type": "function"
    },
    {
      "inputs": [
        {
          "components": [
            {
              "internalType": "address",
              "name": "sender",
              "type": "address"
            },
            {
              "internalType": "uint256",
              "name": "nonce",
              "type": "uint256"
            },
            {
              "internalType": "bytes",
              "name": "initCode",
              "type": "bytes"
            },
            {
              "internalType": "bytes",
              "name": "callData",
              "type": "bytes"
            },
            {
              "internalType": "uint256",
              "name": "callGasLimit",
              "type": "uint256"
            },
            {
              "internalType": "uint256",
              "name": "verificationGasLimit",
              "type": "uint256"
            },
            {
              "internalType": "uint256",
              "name": "preVerificationGas",
              "type": "uint256"
            },
            {
              "internalType": "uint256",
              "name": "maxFeePerGas",
              "type": "uint256"
            },
            {
              "internalType": "uint256",
              "name": "maxPriorityFeePerGas",
              "type": "uint256"
            },
            {
              "internalType": "bytes",
              "name": "paymasterAndData",
              "type": "bytes"
            },
            {
              "internalType": "bytes",
              "name": "signature",
              "type": "bytes"
            }
          ],
          "internalType": "struct UserOperation",
          "name": "userOp",
          "type": "tuple"
        },
        {
          "internalType": "bytes32",
          "name": "",
          "type": "bytes32"
        },
        {
          "internalType": "uint256",
          "name": "",
          "type": "uint256"
        }
      ],
      "name": "validatePaymasterUserOp",
      "outputs": [
        {
          "internalType": "bytes",
          "name": "context",
          "type": "bytes"
        },
        {
          "internalType": "uint256",
          "name": "validationData",
          "type": "uint256"
        }
      ],
      "stateMutability": "nonpayable",
      "type": "function"
    },
    {
      "inputs": [],
      "name": "verifyingSigner",
      "outputs": [
        {
          "internalType": "address",
          "name": "",
          "type": "address"
        }
      ],
      "stateMutability": "view",
      "type": "function"
    },
    {
      "inputs": [
        {
          "internalType": "address payable",
          "name": "withdrawAddress",
          "type": "address"
        },
        {
          "internalType": "uint256",
          "name": "amount",
          "type": "uint256"
        }
      ],
      "name": "withdrawTo",
      "outputs": [],
      "stateMutability": "nonpayable",
      "type": "function"
    },
    {
      "stateMutability": "payable",
      "type": "receive"
    }
  ],
  "bytecode": "0x60a06040523480156200001157600080fd5b50604051620019e8380380620019e883398181016040528101906200003791906200021b565b620000576200004b620000e560201b60201c565b620000ed60201b60201c565b8173ffffffffffffffffffffffffffffffffffffffff1660808173ffffffffffffffffffffffffffffffffffffffff168152505080600160006101000a81548173ffffffffffffffffffffffffffffffffffffffff021916908373ffffffffffffffffffffffffffffffffffffffff160217905550620000dd33620000ed60201b60201c565b505062000262565b600033905090565b60008060009054906101000a900473ffffffffffffffffffffffffffffffffffffffff169050816000806101000a81548173ffffffffffffffffffffffffffffffffffffffff021916908373ffffffffffffffffffffffffffffffffffffffff1602179055508173ffffffffffffffffffffffffffffffffffffffff168173ffffffffffffffffffffffffffffffffffffffff167f8be0079c531659141344cd1fd0a4f28419497f9722a3daafe3b4186f6b6457e060405160405180910390a35050565b600080fd5b600073ffffffffffffffffffffffffffffffffffffffff82169050919050565b6000620001e382620001b6565b9050919050565b620001f581620001d6565b81146200020157600080fd5b50565b6000815190506200021581620001ea565b92915050565b60008060408385031215620002355762000234620001b1565b5b6000620002458582860162000204565b9250506020620002588582860162000204565b9150509250929050565b608051611741620002a76000396000818160ea0152818161048d015281816106090152818161089101528181610925015281816109530152610b3601526117416000f3fe6080604052600436106100e15760003560e01c8063a9a234091161007f578063f2fde38b11610059578063f2fde38b146103cd578063f465c77e146103f6578063f5cba98c14610434578063f8117aa81461045d57610243565b8063a9a234091461036f578063b0d691fe14610398578063d0e30db0146103c357610243565b806348c63f47116100bb57806348c63f47146102c75780636d2a2d5914610304578063715018a61461032d5780638da5cb5b1461034457610243565b806312065fe014610248578063205c28781461027357806323d9ac9b1461029c57610243565b366102435760007f000000000000000000000000000000000000000000000000000000000000000073ffffffffffffffffffffffffffffffffffffffff1634306040516024016101319190610f65565b6040516020818303038152906040527fb760faf9000000000000000000000000000000000000000000000000000000007bffffffffffffffffffffffffffffffffffffffffffffffffffffffff19166020820180517bffffffffffffffffffffffffffffffffffffffffffffffffffffffff83818316178352505050506040516101bb9190610ff1565b60006040518083038185875af1925050503d80600081146101f8576040519150601f19603f3d011682016040523d82523d6000602084013e6101fd565b606091505b5050905080610241576040517f08c379a000000000000000000000000000000000000000000000000000000000815260040161023890611065565b60405180910390fd5b005b600080fd5b34801561025457600080fd5b5061025d610486565b60405161026a919061109e565b60405180910390f35b34801561027f57600080fd5b5061029a6004803603810190610295919061112d565b6105fd565b005b3480156102a857600080fd5b506102b1610766565b6040516102be9190610f65565b60405180910390f35b3480156102d357600080fd5b506102ee60048036038101906102e99190611199565b61078c565b6040516102fb91906111e1565b60405180910390f35b34801561031057600080fd5b5061032b60048036038101906103269190611199565b6107ac565b005b34801561033957600080fd5b50610342610852565b005b34801561035057600080fd5b50610359610866565b6040516103669190610f65565b60405180910390f35b34801561037b57600080fd5b5061039660048036038101906103919190611286565b61088f565b005b3480156103a457600080fd5b506103ad610923565b6040516103ba9190610f65565b60405180910390f35b6103cb610947565b005b3480156103d957600080fd5b506103f460048036038101906103ef9190611199565b610aad565b005b34801561040257600080fd5b5061041d60048036038101906104189190611355565b610b30565b60405161042b92919061141f565b60405180910390f35b34801561044057600080fd5b5061045b60048036038101906104569190611199565b610c66565b005b34801561046957600080fd5b50610484600480360381019061047f9190611199565b610d34565b005b60008060007f000000000000000000000000000000000000000000000000000000000000000073ffffffffffffffffffffffffffffffffffffffff16306040516024016104d39190610f65565b6040516020818303038152906040527f70a08231000000000000000000000000000000000000000000000000000000007bffffffffffffffffffffffffffffffffffffffffffffffffffffffff19166020820180517bffffffffffffffffffffffffffffffffffffffffffffffffffffffff838183161783525050505060405161055d9190610ff1565b600060405180830381855afa9150503d8060008114610598576040519150601f19603f3d011682016040523d82523d6000602084013e61059d565b606091505b5091509150816105e2576040517f08c379a00000000000000000000000000000000000000000000000000000000081526004016105d99061149b565b60405180910390fd5b808060200190518101906105f691906114d0565b9250505090565b610605610dda565b60007f000000000000000000000000000000000000000000000000000000000000000073ffffffffffffffffffffffffffffffffffffffff16838360405160240161065192919061150c565b6040516020818303038152906040527f205c2878000000000000000000000000000000000000000000000000000000007bffffffffffffffffffffffffffffffffffffffffffffffffffffffff19166020820180517bffffffffffffffffffffffffffffffffffffffffffffffffffffffff83818316178352505050506040516106db9190610ff1565b6000604051808303816000865af19150503d8060008114610718576040519150601f19603f3d011682016040523d82523d6000602084013e61071d565b606091505b5050905080610761576040517f08c379a000000000000000000000000000000000000000000000000000000000815260040161075890611581565b60405180910390fd5b505050565b600160009054906101000a900473ffffffffffffffffffffffffffffffffffffffff1681565b60026020528060005260406000206000915054906101000a900460ff1681565b6107b4610dda565b6000600260008373ffffffffffffffffffffffffffffffffffffffff1673ffffffffffffffffffffffffffffffffffffffff16815260200190815260200160002060006101000a81548160ff0219169083151502179055508073ffffffffffffffffffffffffffffffffffffffff167f07c4e3d960c90477383fa71f1e1c90120971071e022ad843ca30e0c108cb07ea60405160405180910390a250565b61085a610dda565b6108646000610e58565b565b60008060009054906101000a900473ffffffffffffffffffffffffffffffffffffffff16905090565b7f000000000000000000000000000000000000000000000000000000000000000073ffffffffffffffffffffffffffffffffffffffff163373ffffffffffffffffffffffffffffffffffffffff161461091d576040517f08c379a0000000000000000000000000000000000000000000000000000000008152600401610914906115ed565b60405180910390fd5b50505050565b7f000000000000000000000000000000000000000000000000000000000000000081565b61094f610dda565b60007f000000000000000000000000000000000000000000000000000000000000000073ffffffffffffffffffffffffffffffffffffffff16343060405160240161099a9190610f65565b6040516020818303038152906040527fb760faf9000000000000000000000000000000000000000000000000000000007bffffffffffffffffffffffffffffffffffffffffffffffffffffffff19166020820180517bffffffffffffffffffffffffffffffffffffffffffffffffffffffff8381831617835250505050604051610a249190610ff1565b60006040518083038185875af1925050503d8060008114610a61576040519150601f19603f3d011682016040523d82523d6000602084013e610a66565b606091505b5050905080610aaa576040517f08c379a0000000000000000000000000000000000000000000000000000000008152600401610aa190611065565b60405180910390fd5b50565b610ab5610dda565b600073ffffffffffffffffffffffffffffffffffffffff168173ffffffffffffffffffffffffffffffffffffffff1603610b24576040517f08c379a0000000000000000000000000000000000000000000000000000000008152600401610b1b9061167f565b60405180910390fd5b610b2d81610e58565b50565b606060007f000000000000000000000000000000000000000000000000000000000000000073ffffffffffffffffffffffffffffffffffffffff163373ffffffffffffffffffffffffffffffffffffffff1614610bc2576040517f08c379a0000000000000000000000000000000000000000000000000000000008152600401610bb9906115ed565b60405180910390fd5b6000856000016020810190610bd79190611199565b9050600260008273ffffffffffffffffffffffffffffffffffffffff1673ffffffffffffffffffffffffffffffffffffffff16815260200190815260200160002060009054906101000a900460ff1615610c465760009150604051806020016040528060008152509250610c5d565b600191506040518060200160405280600081525092505b50935093915050565b610c6e610dda565b6000600160009054906101000a900473ffffffffffffffffffffffffffffffffffffffff16905081600160006101000a81548173ffffffffffffffffffffffffffffffffffffffff021916908373ffffffffffffffffffffffffffffffffffffffff1602179055508173ffffffffffffffffffffffffffffffffffffffff168173ffffffffffffffffffffffffffffffffffffffff167f37a521a2988207a9b869f3e24fa23ae892580f99064daf05fd27cf6c09fd1f2960405160405180910390a35050565b610d3c610dda565b6001600260008373ffffffffffffffffffffffffffffffffffffffff1673ffffffffffffffffffffffffffffffffffffffff16815260200190815260200160002060006101000a81548160ff0219169083151502179055508073ffffffffffffffffffffffffffffffffffffffff167f96fd2e2ce167a38e85faedb63814e6750c2ce8f42aa2791efbedfdbe1a3d5c0960405160405180910390a250565b610de2610f1c565b73ffffffffffffffffffffffffffffffffffffffff16610e00610866565b73ffffffffffffffffffffffffffffffffffffffff1614610e56576040517f08c379a0000000000000000000000000000000000000000000000000000000008152600401610e4d906116eb565b60405180910390fd5b565b60008060009054906101000a900473ffffffffffffffffffffffffffffffffffffffff169050816000806101000a81548173ffffffffffffffffffffffffffffffffffffffff021916908373ffffffffffffffffffffffffffffffffffffffff1602179055508173ffffffffffffffffffffffffffffffffffffffff168173ffffffffffffffffffffffffffffffffffffffff167f8be0079c531659141344cd1fd0a4f28419497f9722a3daafe3b4186f6b6457e060405160405180910390a35050565b600033905090565b600073ffffffffffffffffffffffffffffffffffffffff82169050919050565b6000610f4f82610f24565b9050919050565b610f5f81610f44565b82525050565b6000602082019050610f7a6000830184610f56565b92915050565b600081519050919050565b600081905092915050565b60005b83811015610fb4578082015181840152602081019050610f99565b60008484015250505050565b6000610fcb82610f80565b610fd58185610f8b565b9350610fe5818560208601610f96565b80840191505092915050565b6000610ffd8284610fc0565b915081905092915050565b600082825260208201905092915050565b7f4465706f736974206661696c6564000000000000000000000000000000000000600082015250565b600061104f600e83611008565b915061105a82611019565b602082019050919050565b6000602082019050818103600083015261107e81611042565b9050919050565b6000819050919050565b61109881611085565b82525050565b60006020820190506110b3600083018461108f565b92915050565b600080fd5b600080fd5b60006110ce82610f24565b9050919050565b6110de816110c3565b81146110e957600080fd5b50565b6000813590506110fb816110d5565b92915050565b61110a81611085565b811461111557600080fd5b50565b60008135905061112781611101565b92915050565b60008060408385031215611144576111436110b9565b5b6000611152858286016110ec565b925050602061116385828601611118565b9150509250929050565b61117681610f44565b811461118157600080fd5b50565b6000813590506111938161116d565b92915050565b6000602082840312156111af576111ae6110b9565b5b60006111bd84828501611184565b91505092915050565b60008115159050919050565b6111db816111c6565b82525050565b60006020820190506111f660008301846111d2565b92915050565b6003811061120957600080fd5b50565b60008135905061121b816111fc565b92915050565b600080fd5b600080fd5b600080fd5b60008083601f84011261124657611245611221565b5b8235905067ffffffffffffffff81111561126357611262611226565b5b60208301915083600182028301111561127f5761127e61122b565b5b9250929050565b600080600080606085870312156112a05761129f6110b9565b5b60006112ae8782880161120c565b945050602085013567ffffffffffffffff8111156112cf576112ce6110be565b5b6112db87828801611230565b935093505060406112ee87828801611118565b91505092959194509250565b600080fd5b60006101608284031215611316576113156112fa565b5b81905092915050565b6000819050919050565b6113328161131f565b811461133d57600080fd5b50565b60008135905061134f81611329565b92915050565b60008060006060848603121561136e5761136d6110b9565b5b600084013567ffffffffffffffff81111561138c5761138b6110be565b5b611398868287016112ff565b93505060206113a986828701611340565b92505060406113ba86828701611118565b9150509250925092565b600082825260208201905092915050565b6000601f19601f8301169050919050565b60006113f182610f80565b6113fb81856113c4565b935061140b818560208601610f96565b611414816113d5565b840191505092915050565b6000604082019050818103600083015261143981856113e6565b9050611448602083018461108f565b9392505050565b7f42616c616e636520636865636b206661696c6564000000000000000000000000600082015250565b6000611485601483611008565b91506114908261144f565b602082019050919050565b600060208201905081810360008301526114b481611478565b9050919050565b6000815190506114ca81611101565b92915050565b6000602082840312156114e6576114e56110b9565b5b60006114f4848285016114bb565b91505092915050565b611506816110c3565b82525050565b600060408201905061152160008301856114fd565b61152e602083018461108f565b9392505050565b7f5769746864726177206661696c65640000000000000000000000000000000000600082015250565b600061156b600f83611008565b915061157682611535565b602082019050919050565b6000602082019050818103600083015261159a8161155e565b9050919050565b7f53656e646572206e6f7420456e747279506f696e740000000000000000000000600082015250565b60006115d7601583611008565b91506115e2826115a1565b602082019050919050565b60006020820190508181036000830152611606816115ca565b9050919050565b7f4f776e61626c653a206e6577206f776e657220697320746865207a65726f206160008201527f6464726573730000000000000000000000000000000000000000000000000000602082015250565b6000611669602683611008565b91506116748261160d565b604082019050919050565b600060208201905081810360008301526116988161165c565b9050919050565b7f4f776e61626c653a2063616c6c6572206973206e6f7420746865206f776e6572600082015250565b60006116d5602083611008565b91506116e08261169f565b602082019050919050565b60006020820190508181036000830152611704816116c8565b905091905056fea26469706673582212201996a35c710daa14457b308b16b8911e59f29bc84e54ed7333435e44587713d464736f6c63430008140033",
  "linkReferences": {},
  "deployedLinkReferences": {}
}