{
  "_format": "hh-sol-artifact-1",
  "contractName": "EntryPoint",
  "sourceName": "contracts/EntryPoint.sol",
  "abi": [
    {
      "inputs": [
        {
          "internalType": "uint256",
          "name": "opIndex",
          "type": "uint256"
        },
        {
          "internalType": "string",
          "name": "reason",
          "type": "string"
        }
      ],
      "name": "FailedOp",
      "type": "error"
    },
    {
      "anonymous": false,
      "inputs": [
        {
          "indexed": true,
          "internalType": "bytes32",
          "name": "userOpHash",
          "type": "bytes32"
        },
        {
          "indexed": true,
          "internalType": "address",
          "name": "sender",
          "type": "address"
        },
        {
          "indexed": false,
          "internalType": "address",
          "name": "factory",
          "type": "address"
        },
        {
          "indexed": false,
          "internalType": "address",
          "name": "paymaster",
          "type": "address"
        }
      ],
      "name": "AccountDeployed",
      "type": "event"
    },
    {
      "anonymous": false,
      "inputs": [
        {
          "indexed": true,
          "internalType": "address",
          "name": "account",
          "type": "address"
        },
        {
          "indexed": false,
          "internalType": "uint256",
          "name": "totalDeposit",
          "type": "uint256"
        }
      ],
      "name": "Deposited",
      "type": "event"
    },
    {
      "anonymous": false,
      "inputs": [
        {
          "indexed": true,
          "internalType": "bytes32",
          "name": "userOpHash",
          "type": "bytes32"
        },
        {
          "indexed": true,
          "internalType": "address",
          "name": "sender",
          "type": "address"
        },
        {
          "indexed": true,
          "internalType": "address",
          "name": "paymaster",
          "type": "address"
        },
        {
          "indexed": false,
          "internalType": "uint256",
          "name": "nonce",
          "type": "uint256"
        },
        {
          "indexed": false,
          "internalType": "bool",
          "name": "success",
          "type": "bool"
        },
        {
          "indexed": false,
          "internalType": "uint256",
          "name": "actualGasCost",
          "type": "uint256"
        },
        {
          "indexed": false,
          "internalType": "uint256",
          "name": "actualGasUsed",
          "type": "uint256"
        }
      ],
      "name": "UserOperationEvent",
      "type": "event"
    },
    {
      "anonymous": false,
      "inputs": [
        {
          "indexed": true,
          "internalType": "address",
          "name": "account",
          "type": "address"
        },
        {
          "indexed": false,
          "internalType": "address",
          "name": "withdrawAddress",
          "type": "address"
        },
        {
          "indexed": false,
          "internalType": "uint256",
          "name": "amount",
          "type": "uint256"
        }
      ],
      "name": "Withdrawn",
      "type": "event"
    },
    {
      "inputs": [],
      "name": "SIG_VALIDATION_FAILED",
      "outputs": [
        {
          "internalType": "uint256",
          "name": "",
          "type": "uint256"
        }
      ],
      "stateMutability": "view",
      "type": "function"
    },
    {
      "inputs": [
        {
          "internalType": "address",
          "name": "",
          "type": "address"
        }
      ],
      "name": "balanceOf",
      "outputs": [
        {
          "internalType": "uint256",
          "name": "",
          "type": "uint256"
        }
      ],
      "stateMutability": "view",
      "type": "function"
    },
    {
      "inputs": [
        {
          "internalType": "address",
          "name": "account",
          "type": "address"
        }
      ],
      "name": "depositTo",
      "outputs": [],
      "stateMutability": "payable",
      "type": "function"
    },
    {
      "inputs": [
        {
          "internalType": "address",
          "name": "sender",
          "type": "address"
        },
        {
          "internalType": "uint192",
          "name": "key",
          "type": "uint192"
        }
      ],
      "name": "getNonce",
      "outputs": [
        {
          "internalType": "uint256",
          "name": "",
          "type": "uint256"
        }
      ],
      "stateMutability": "view",
      "type": "function"
    },
    {
      "inputs": [
        {
          "components": [
            {
              "internalType": "address",
              "name": "sender",
              "type": "address"
            },
            {
              "internalType": "uint256",
              "name": "nonce",
              "type": "uint256"
            },
            {
              "internalType": "bytes",
              "name": "initCode",
              "type": "bytes"
            },
            {
              "internalType": "bytes",
              "name": "callData",
              "type": "bytes"
            },
            {
              "internalType": "uint256",
              "name": "callGasLimit",
              "type": "uint256"
            },
            {
              "internalType": "uint256",
              "name": "verificationGasLimit",
              "type": "uint256"
            },
            {
              "internalType": "uint256",
              "name": "preVerificationGas",
              "type": "uint256"
            },
            {
              "internalType": "uint256",
              "name": "maxFeePerGas",
              "type": "uint256"
            },
            {
              "internalType": "uint256",
              "name": "maxPriorityFeePerGas",
              "type": "uint256"
            },
            {
              "internalType": "bytes",
              "name": "paymasterAndData",
              "type": "bytes"
            },
            {
              "internalType": "bytes",
              "name": "signature",
              "type": "bytes"
            }
          ],
          "internalType": "struct UserOperation",
          "name": "userOp",
          "type": "tuple"
        }
      ],
      "name": "getUserOpHash",
      "outputs": [
        {
          "internalType": "bytes32",
          "name": "",
          "type": "bytes32"
        }
      ],
      "stateMutability": "view",
      "type": "function"
    },
    {
      "inputs": [
        {
          "components": [
            {
              "internalType": "address",
              "name": "sender",
              "type": "address"
            },
            {
              "internalType": "uint256",
              "name": "nonce",
              "type": "uint256"
            },
            {
              "internalType": "bytes",
              "name": "initCode",
              "type": "bytes"
            },
            {
              "internalType": "bytes",
              "name": "callData",
              "type": "bytes"
            },
            {
              "internalType": "uint256",
              "name": "callGasLimit",
              "type": "uint256"
            },
            {
              "internalType": "uint256",
              "name": "verificationGasLimit",
              "type": "uint256"
            },
            {
              "internalType": "uint256",
              "name": "preVerificationGas",
              "type": "uint256"
            },
            {
              "internalType": "uint256",
              "name": "maxFeePerGas",
              "type": "uint256"
            },
            {
              "internalType": "uint256",
              "name": "maxPriorityFeePerGas",
              "type": "uint256"
            },
            {
              "internalType": "bytes",
              "name": "paymasterAndData",
              "type": "bytes"
            },
            {
              "internalType": "bytes",
              "name": "signature",
              "type": "bytes"
            }
          ],
          "internalType": "struct UserOperation[]",
          "name": "ops",
          "type": "tuple[]"
        },
        {
          "internalType": "address payable",
          "name": "beneficiary",
          "type": "address"
        }
      ],
      "name": "handleOps",
      "outputs": [],
      "stateMutability": "nonpayable",
      "type": "function"
    },
    {
      "inputs": [
        {
          "internalType": "address",
          "name": "",
          "type": "address"
        },
        {
          "internalType": "uint192",
          "name": "",
          "type": "uint192"
        }
      ],
      "name": "nonceSequenceNumber",
      "outputs": [
        {
          "internalType": "uint256",
          "name": "",
          "type": "uint256"
        }
      ],
      "stateMutability": "view",
      "type": "function"
    },
    {
      "inputs": [
        {
          "internalType": "address payable",
          "name": "withdrawAddress",
          "type": "address"
        },
        {
          "internalType": "uint256",
          "name": "amount",
          "type": "uint256"
        }
      ],
      "name": "withdrawTo",
      "outputs": [],
      "stateMutability": "nonpayable",
      "type": "function"
    },
    {
      "stateMutability": "payable",
      "type": "receive"
    }
  ],
  "bytecode": "0x608060405234801561001057600080fd5b50612b84806100206000396000f3fe60806040526004361061007f5760003560e01c806370a082311161004e57806370a082311461023a5780638f41ec5a14610277578063a6193531146102a2578063b760faf9146102df57610169565b80631b2e01b81461016e5780631fad948c146101ab578063205c2878146101d457806335567e1a146101fd57610169565b366101695734600160003373ffffffffffffffffffffffffffffffffffffffff1673ffffffffffffffffffffffffffffffffffffffff16815260200190815260200160002060008282546100d39190611785565b925050819055503373ffffffffffffffffffffffffffffffffffffffff167f2da466a7b24304f47e87fa2e1e5a81b9831ce54fec19055ce277ca2f39ba42c4600160003373ffffffffffffffffffffffffffffffffffffffff1673ffffffffffffffffffffffffffffffffffffffff1681526020019081526020016000205460405161015f91906117c8565b60405180910390a2005b600080fd5b34801561017a57600080fd5b50610195600480360381019061019091906118a5565b6102fb565b6040516101a291906117c8565b60405180910390f35b3480156101b757600080fd5b506101d260048036038101906101cd9190611988565b610320565b005b3480156101e057600080fd5b506101fb60048036038101906101f69190611a14565b610523565b005b34801561020957600080fd5b50610224600480360381019061021f91906118a5565b6106fc565b60405161023191906117c8565b60405180910390f35b34801561024657600080fd5b50610261600480360381019061025c9190611a54565b6107aa565b60405161026e91906117c8565b60405180910390f35b34801561028357600080fd5b5061028c6107c2565b60405161029991906117c8565b60405180910390f35b3480156102ae57600080fd5b506102c960048036038101906102c49190611aa6565b6107c7565b6040516102d69190611b08565b60405180910390f35b6102f960048036038101906102f49190611a54565b6108ce565b005b6000602052816000526040600020602052806000526040600020600091509150505481565b600083839050905060008167ffffffffffffffff81111561034457610343611b23565b5b60405190808252806020026020018201604052801561037d57816020015b61036a61171b565b8152602001906001900390816103625790505b50905060005b828110156103ed5760008282815181106103a05761039f611b52565b5b602002602001015190506103d9828888858181106103c1576103c0611b52565b5b90506020028101906103d39190611b90565b836109b4565b5080806103e590611bb9565b915050610383565b506000805b83811015610463576104438188888481811061041157610410611b52565b5b90506020028101906104239190611b90565b85848151811061043657610435611b52565b5b6020026020010151610fb8565b8261044e9190611785565b9150808061045b90611bb9565b9150506103f2565b50600081111561051b5760008473ffffffffffffffffffffffffffffffffffffffff168260405161049390611c32565b60006040518083038185875af1925050503d80600081146104d0576040519150601f19603f3d011682016040523d82523d6000602084013e6104d5565b606091505b5050905080610519576040517f08c379a000000000000000000000000000000000000000000000000000000000815260040161051090611cca565b60405180910390fd5b505b505050505050565b80600160003373ffffffffffffffffffffffffffffffffffffffff1673ffffffffffffffffffffffffffffffffffffffff1681526020019081526020016000205410156105a5576040517f08c379a000000000000000000000000000000000000000000000000000000000815260040161059c90611d36565b60405180910390fd5b80600160003373ffffffffffffffffffffffffffffffffffffffff1673ffffffffffffffffffffffffffffffffffffffff16815260200190815260200160002060008282546105f49190611d56565b9250508190555060008273ffffffffffffffffffffffffffffffffffffffff168260405161062190611c32565b60006040518083038185875af1925050503d806000811461065e576040519150601f19603f3d011682016040523d82523d6000602084013e610663565b606091505b50509050806106a7576040517f08c379a000000000000000000000000000000000000000000000000000000000815260040161069e90611dd6565b60405180910390fd5b3373ffffffffffffffffffffffffffffffffffffffff167fd1c19fbcd4551a5edfb66d43d2e337c04837afda3482b42bdf569a8fccdae5fb84846040516106ef929190611e55565b60405180910390a2505050565b600060408277ffffffffffffffffffffffffffffffffffffffffffffffff16901b6000808573ffffffffffffffffffffffffffffffffffffffff1673ffffffffffffffffffffffffffffffffffffffff16815260200190815260200160002060008477ffffffffffffffffffffffffffffffffffffffffffffffff1677ffffffffffffffffffffffffffffffffffffffffffffffff1681526020019081526020016000205417905092915050565b60016020528060005260406000206000915090505481565b600181565b60008160000160208101906107dc9190611a54565b82602001358380604001906107f19190611e7e565b6040516107ff929190611f15565b60405180910390208480606001906108179190611e7e565b604051610825929190611f15565b604051809103902085608001358660a001358760c001358860e001358961010001358a8061012001906108589190611e7e565b604051610866929190611f15565b60405180910390206040516020016108879a99989796959493929190611f3d565b6040516020818303038152906040528051906020012030466040516020016108b193929190611fd9565b604051602081830303815290604052805190602001209050919050565b34600160008373ffffffffffffffffffffffffffffffffffffffff1673ffffffffffffffffffffffffffffffffffffffff168152602001908152602001600020600082825461091d9190611785565b925050819055508073ffffffffffffffffffffffffffffffffffffffff167f2da466a7b24304f47e87fa2e1e5a81b9831ce54fec19055ce277ca2f39ba42c4600160008473ffffffffffffffffffffffffffffffffffffffff1673ffffffffffffffffffffffffffffffffffffffff168152602001908152602001600020546040516109a991906117c8565b60405180910390a250565b60005a9050600060408460200135901c90506000846020013590508067ffffffffffffffff166000808760000160208101906109f09190611a54565b73ffffffffffffffffffffffffffffffffffffffff1673ffffffffffffffffffffffffffffffffffffffff16815260200190815260200160002060008477ffffffffffffffffffffffffffffffffffffffffffffffff1677ffffffffffffffffffffffffffffffffffffffffffffffff1681526020019081526020016000206000815480929190610a8090611bb9565b9190505514610ac4576040517f08c379a0000000000000000000000000000000000000000000000000000000008152600401610abb9061205c565b60405180910390fd5b610ace86866112e4565b6000610ad986611606565b905080856020018181525050600080610b0188806101200190610afc9190611e7e565b61167d565b9050600073ffffffffffffffffffffffffffffffffffffffff168173ffffffffffffffffffffffffffffffffffffffff1603610bac576000600160008a6000016020810190610b509190611a54565b73ffffffffffffffffffffffffffffffffffffffff1673ffffffffffffffffffffffffffffffffffffffff168152602001908152602001600020549050838111610ba5578084610ba09190611d56565b610ba8565b60005b9250505b876000016020810190610bbf9190611a54565b73ffffffffffffffffffffffffffffffffffffffff16633a871cdd8960a001358a610be98c6107c7565b866040518563ffffffff1660e01b8152600401610c08939291906122ed565b60206040518083038160008887f193505050508015610c4557506040513d601f19601f82011682018060405250810190610c429190612340565b60015b610c8657886040517f220266b6000000000000000000000000000000000000000000000000000000008152600401610c7d91906123b9565b60405180910390fd5b8088608001818152505050600073ffffffffffffffffffffffffffffffffffffffff168173ffffffffffffffffffffffffffffffffffffffff1614610e8c5782600160008373ffffffffffffffffffffffffffffffffffffffff1673ffffffffffffffffffffffffffffffffffffffff168152602001908152602001600020541015610d47576040517f08c379a0000000000000000000000000000000000000000000000000000000008152600401610d3e90612433565b60405180910390fd5b8073ffffffffffffffffffffffffffffffffffffffff1663f465c77e8960a001358a610d728c6107c7565b876040518563ffffffff1660e01b8152600401610d91939291906122ed565b60006040518083038160008887f193505050508015610dd357506040513d6000823e3d601f19601f82011682018060405250810190610dd0919061256f565b60015b610e1457886040517f220266b6000000000000000000000000000000000000000000000000000000008152600401610e0b9190612617565b60405180910390fd5b600189604001901515908115158152505080896060018181525050505082600160008373ffffffffffffffffffffffffffffffffffffffff1673ffffffffffffffffffffffffffffffffffffffff1681526020019081526020016000206000828254610e809190611d56565b92505081905550610f89565b82600160008a6000016020810190610ea49190611a54565b73ffffffffffffffffffffffffffffffffffffffff1673ffffffffffffffffffffffffffffffffffffffff168152602001908152602001600020541015610f20576040517f08c379a0000000000000000000000000000000000000000000000000000000008152600401610f1790612691565b60405180910390fd5b82600160008a6000016020810190610f389190611a54565b73ffffffffffffffffffffffffffffffffffffffff1673ffffffffffffffffffffffffffffffffffffffff1681526020019081526020016000206000828254610f819190611d56565b925050819055505b8760c001355a87610f9a9190611d56565b610fa49190611785565b876000018181525050505050505050505050565b6000805a90506000600190506000858060600190610fd69190611e7e565b9050111561107457846000016020810190610ff19190611a54565b73ffffffffffffffffffffffffffffffffffffffff16856080013586806060019061101c9190611e7e565b60405161102a929190611f15565b60006040518083038160008787f1925050503d8060008114611068576040519150601f19603f3d011682016040523d82523d6000602084013e61106d565b606091505b5050809150505b600084600001515a846110879190611d56565b6110919190611785565b905061109c866116be565b816110a791906126b1565b935060006110c4878061012001906110bf9190611e7e565b61167d565b9050600073ffffffffffffffffffffffffffffffffffffffff168173ffffffffffffffffffffffffffffffffffffffff1614158015611104575085604001515b15611185578073ffffffffffffffffffffffffffffffffffffffff1663a9a234098860a0013585611136576001611139565b60005b886040518463ffffffff1660e01b815260040161115792919061279e565b600060405180830381600088803b15801561117157600080fd5b5087f193505050508015611183575060015b505b6000858760200151111561124e578587602001516111a39190611d56565b905060008073ffffffffffffffffffffffffffffffffffffffff168373ffffffffffffffffffffffffffffffffffffffff16036111f2578860000160208101906111ed9190611a54565b6111f4565b825b905081600160008373ffffffffffffffffffffffffffffffffffffffff1673ffffffffffffffffffffffffffffffffffffffff16815260200190815260200160002060008282546112459190611785565b92505081905550505b8173ffffffffffffffffffffffffffffffffffffffff168860000160208101906112789190611a54565b73ffffffffffffffffffffffffffffffffffffffff166112978a6107c7565b7f49628fd1471006c1482da88028e9ce4dbb080b815c9b0344d39e5a8e6ec1419f8b60200135888b896040516112d094939291906127f5565b60405180910390a450505050509392505050565b60008180604001906112f69190611e7e565b9050146116025760008160000160208101906113129190611a54565b905060008173ffffffffffffffffffffffffffffffffffffffff163b1461136e576040517f08c379a000000000000000000000000000000000000000000000000000000000815260040161136590612886565b60405180910390fd5b60008280604001906113809190611e7e565b600090601492611392939291906128b0565b9061139d919061292f565b60601c905060008380604001906113b49190611e7e565b60149080926113c5939291906128b0565b8080601f016020809104026020016040519081016040528093929190818152602001838380828437600081840152601f19601f8201169050808301925050505050505090506000808373ffffffffffffffffffffffffffffffffffffffff168360405161143291906129ca565b6000604051808303816000865af19150503d806000811461146f576040519150601f19603f3d011682016040523d82523d6000602084013e611474565b606091505b5091509150816114b9576040517f08c379a00000000000000000000000000000000000000000000000000000000081526004016114b090612a2d565b60405180910390fd5b6000602082015190508573ffffffffffffffffffffffffffffffffffffffff168173ffffffffffffffffffffffffffffffffffffffff1614611530576040517f08c379a000000000000000000000000000000000000000000000000000000000815260040161152790612a99565b60405180910390fd5b60008173ffffffffffffffffffffffffffffffffffffffff163b1161158a576040517f08c379a000000000000000000000000000000000000000000000000000000000815260040161158190612b05565b60405180910390fd5b8573ffffffffffffffffffffffffffffffffffffffff166115aa886107c7565b7fd51a9c61267aa6196961883ecf5ff2da6619c37dac0fa92122513fb32c032d2d876115e58b8061012001906115e09190611e7e565b61167d565b6040516115f3929190612b25565b60405180910390a35050505050505b5050565b60008060008380610120019061161c9190611e7e565b90501161162a57600161162d565b60035b60ff16905060008360c00135828560a0013561164991906126b1565b85608001356116589190611785565b6116629190611785565b90508360e001358161167491906126b1565b92505050919050565b6000601483839050106116b357828260009060149261169e939291906128b0565b906116a9919061292f565b60601c90506116b8565b600090505b92915050565b60008161010001358260e00135036116dc578160e0013590506116fd565b6116fa8260e00135488461010001356116f59190611785565b611702565b90505b919050565b60008183106117115781611713565b825b905092915050565b6040518060a00160405280600081526020016000815260200160001515815260200160008152602001600081525090565b6000819050919050565b7f4e487b7100000000000000000000000000000000000000000000000000000000600052601160045260246000fd5b60006117908261174c565b915061179b8361174c565b92508282019050808211156117b3576117b2611756565b5b92915050565b6117c28161174c565b82525050565b60006020820190506117dd60008301846117b9565b92915050565b6000604051905090565b600080fd5b600080fd5b600073ffffffffffffffffffffffffffffffffffffffff82169050919050565b6000611822826117f7565b9050919050565b61183281611817565b811461183d57600080fd5b50565b60008135905061184f81611829565b92915050565b600077ffffffffffffffffffffffffffffffffffffffffffffffff82169050919050565b61188281611855565b811461188d57600080fd5b50565b60008135905061189f81611879565b92915050565b600080604083850312156118bc576118bb6117ed565b5b60006118ca85828601611840565b92505060206118db85828601611890565b9150509250929050565b600080fd5b600080fd5b600080fd5b60008083601f84011261190a576119096118e5565b5b8235905067ffffffffffffffff811115611927576119266118ea565b5b602083019150836020820283011115611943576119426118ef565b5b9250929050565b6000611955826117f7565b9050919050565b6119658161194a565b811461197057600080fd5b50565b6000813590506119828161195c565b92915050565b6000806000604084860312156119a1576119a06117ed565b5b600084013567ffffffffffffffff8111156119bf576119be6117f2565b5b6119cb868287016118f4565b935093505060206119de86828701611973565b9150509250925092565b6119f18161174c565b81146119fc57600080fd5b50565b600081359050611a0e816119e8565b92915050565b60008060408385031215611a2b57611a2a6117ed565b5b6000611a3985828601611973565b9250506020611a4a858286016119ff565b9150509250929050565b600060208284031215611a6a57611a696117ed565b5b6000611a7884828501611840565b91505092915050565b600080fd5b60006101608284031215611a9d57611a9c611a81565b5b81905092915050565b600060208284031215611abc57611abb6117ed565b5b600082013567ffffffffffffffff811115611ada57611ad96117f2565b5b611ae684828501611a86565b91505092915050565b6000819050919050565b611b0281611aef565b82525050565b6000602082019050611b1d6000830184611af9565b92915050565b7f4e487b7100000000000000000000000000000000000000000000000000000000600052604160045260246000fd5b7f4e487b7100000000000000000000000000000000000000000000000000000000600052603260045260246000fd5b600080fd5b600080fd5b600080fd5b60008235600161016003833603038112611bad57611bac611b81565b5b80830191505092915050565b6000611bc48261174c565b91507fffffffffffffffffffffffffffffffffffffffffffffffffffffffffffffffff8203611bf657611bf5611756565b5b600182019050919050565b600081905092915050565b50565b6000611c1c600083611c01565b9150611c2782611c0c565b600082019050919050565b6000611c3d82611c0f565b9150819050919050565b600082825260208201905092915050565b7f4661696c656420746f207472616e7366657220746f2062656e6566696369617260008201527f7900000000000000000000000000000000000000000000000000000000000000602082015250565b6000611cb4602183611c47565b9150611cbf82611c58565b604082019050919050565b60006020820190508181036000830152611ce381611ca7565b9050919050565b7f496e73756666696369656e742062616c616e6365000000000000000000000000600082015250565b6000611d20601483611c47565b9150611d2b82611cea565b602082019050919050565b60006020820190508181036000830152611d4f81611d13565b9050919050565b6000611d618261174c565b9150611d6c8361174c565b9250828203905081811115611d8457611d83611756565b5b92915050565b7f4661696c656420746f2077697468647261770000000000000000000000000000600082015250565b6000611dc0601283611c47565b9150611dcb82611d8a565b602082019050919050565b60006020820190508181036000830152611def81611db3565b9050919050565b6000819050919050565b6000611e1b611e16611e11846117f7565b611df6565b6117f7565b9050919050565b6000611e2d82611e00565b9050919050565b6000611e3f82611e22565b9050919050565b611e4f81611e34565b82525050565b6000604082019050611e6a6000830185611e46565b611e7760208301846117b9565b9392505050565b60008083356001602003843603038112611e9b57611e9a611b81565b5b80840192508235915067ffffffffffffffff821115611ebd57611ebc611b86565b5b602083019250600182023603831315611ed957611ed8611b8b565b5b509250929050565b82818337600083830152505050565b6000611efc8385611c01565b9350611f09838584611ee1565b82840190509392505050565b6000611f22828486611ef0565b91508190509392505050565b611f3781611817565b82525050565b600061014082019050611f53600083018d611f2e565b611f60602083018c6117b9565b611f6d604083018b611af9565b611f7a606083018a611af9565b611f8760808301896117b9565b611f9460a08301886117b9565b611fa160c08301876117b9565b611fae60e08301866117b9565b611fbc6101008301856117b9565b611fca610120830184611af9565b9b9a5050505050505050505050565b6000606082019050611fee6000830186611af9565b611ffb6020830185611f2e565b61200860408301846117b9565b949350505050565b7f496e76616c6964206e6f6e636500000000000000000000000000000000000000600082015250565b6000612046600d83611c47565b915061205182612010565b602082019050919050565b6000602082019050818103600083015261207581612039565b9050919050565b600061208b6020840184611840565b905092915050565b61209c81611817565b82525050565b60006120b160208401846119ff565b905092915050565b6120c28161174c565b82525050565b600080fd5b600080fd5b600080fd5b600080833560016020038436030381126120f4576120f36120d2565b5b83810192508235915060208301925067ffffffffffffffff82111561211c5761211b6120c8565b5b600182023603831315612132576121316120cd565b5b509250929050565b600082825260208201905092915050565b6000601f19601f8301169050919050565b6000612168838561213a565b9350612175838584611ee1565b61217e8361214b565b840190509392505050565b6000610160830161219d600084018461207c565b6121aa6000860182612093565b506121b860208401846120a2565b6121c560208601826120b9565b506121d360408401846120d7565b85830360408701526121e683828461215c565b925050506121f760608401846120d7565b858303606087015261220a83828461215c565b9250505061221b60808401846120a2565b61222860808601826120b9565b5061223660a08401846120a2565b61224360a08601826120b9565b5061225160c08401846120a2565b61225e60c08601826120b9565b5061226c60e08401846120a2565b61227960e08601826120b9565b506122886101008401846120a2565b6122966101008601826120b9565b506122a56101208401846120d7565b8583036101208701526122b983828461215c565b925050506122cb6101408401846120d7565b8583036101408701526122df83828461215c565b925050508091505092915050565b600060608201905081810360008301526123078186612189565b90506123166020830185611af9565b61232360408301846117b9565b949350505050565b60008151905061233a816119e8565b92915050565b600060208284031215612356576123556117ed565b5b60006123648482850161232b565b91505092915050565b7f4141323320726576657274656420286f72204f4f472900000000000000000000600082015250565b60006123a3601683611c47565b91506123ae8261236d565b602082019050919050565b60006040820190506123ce60008301846117b9565b81810360208301526123df81612396565b905092915050565b7f41413331207061796d6173746572206465706f73697420746f6f206c6f770000600082015250565b600061241d601e83611c47565b9150612428826123e7565b602082019050919050565b6000602082019050818103600083015261244c81612410565b9050919050565b600080fd5b6124618261214b565b810181811067ffffffffffffffff821117156124805761247f611b23565b5b80604052505050565b60006124936117e3565b905061249f8282612458565b919050565b600067ffffffffffffffff8211156124bf576124be611b23565b5b6124c88261214b565b9050602081019050919050565b60005b838110156124f35780820151818401526020810190506124d8565b60008484015250505050565b600061251261250d846124a4565b612489565b90508281526020810184848401111561252e5761252d612453565b5b6125398482856124d5565b509392505050565b600082601f830112612556576125556118e5565b5b81516125668482602086016124ff565b91505092915050565b60008060408385031215612586576125856117ed565b5b600083015167ffffffffffffffff8111156125a4576125a36117f2565b5b6125b085828601612541565b92505060206125c18582860161232b565b9150509250929050565b7f4141333320726576657274656420286f72204f4f472900000000000000000000600082015250565b6000612601601683611c47565b915061260c826125cb565b602082019050919050565b600060408201905061262c60008301846117b9565b818103602083015261263d816125f4565b905092915050565b7f41413231206469646e2774207061792070726566756e64000000000000000000600082015250565b600061267b601783611c47565b915061268682612645565b602082019050919050565b600060208201905081810360008301526126aa8161266e565b9050919050565b60006126bc8261174c565b91506126c78361174c565b92508282026126d58161174c565b915082820484148315176126ec576126eb611756565b5b5092915050565b7f4e487b7100000000000000000000000000000000000000000000000000000000600052602160045260246000fd5b60038110612733576127326126f3565b5b50565b600081905061274482612722565b919050565b600061275482612736565b9050919050565b61276481612749565b82525050565b600082825260208201905092915050565b600061278860008361276a565b915061279382611c0c565b600082019050919050565b60006060820190506127b3600083018561275b565b81810360208301526127c48161277b565b90506127d360408301846117b9565b9392505050565b60008115159050919050565b6127ef816127da565b82525050565b600060808201905061280a60008301876117b9565b61281760208301866127e6565b61282460408301856117b9565b61283160608301846117b9565b95945050505050565b7f414131302073656e64657220616c726561647920636f6e737472756374656400600082015250565b6000612870601f83611c47565b915061287b8261283a565b602082019050919050565b6000602082019050818103600083015261289f81612863565b9050919050565b600080fd5b600080fd5b600080858511156128c4576128c36128a6565b5b838611156128d5576128d46128ab565b5b6001850283019150848603905094509492505050565b600082905092915050565b60007fffffffffffffffffffffffffffffffffffffffff00000000000000000000000082169050919050565b600082821b905092915050565b600061293b83836128eb565b8261294681356128f6565b92506014821015612986576129817fffffffffffffffffffffffffffffffffffffffff00000000000000000000000083601403600802612922565b831692505b505092915050565b600081519050919050565b60006129a48261298e565b6129ae8185611c01565b93506129be8185602086016124d5565b80840191505092915050565b60006129d68284612999565b915081905092915050565b7f4141313320696e6974436f6465206661696c6564000000000000000000000000600082015250565b6000612a17601483611c47565b9150612a22826129e1565b602082019050919050565b60006020820190508181036000830152612a4681612a0a565b9050919050565b7f4141313420696e6974436f6465206d7573742072657475726e2073656e646572600082015250565b6000612a83602083611c47565b9150612a8e82612a4d565b602082019050919050565b60006020820190508181036000830152612ab281612a76565b9050919050565b7f4141313520696e6974436f6465206d757374206372656174652073656e646572600082015250565b6000612aef602083611c47565b9150612afa82612ab9565b602082019050919050565b60006020820190508181036000830152612b1e81612ae2565b9050919050565b6000604082019050612b3a6000830185611f2e565b612b476020830184611f2e565b939250505056fea2646970667358221220838cef1c01b822b7863bdf4a0fb3bcf00591ad773cecbfe34610b3e968201ed864736f6c63430008140033",
  "linkReferences": {},
  "deployedLinkReferences": {}
}