{
  "_format": "hh-sol-artifact-1",
  "contractName": "SimpleAdvancedAccount",
  "sourceName": "contracts/SimpleAdvancedAccount.sol",
  "abi": [
    {
      "inputs": [
        {
          "internalType": "address",
          "name": "_entryPoint",
          "type": "address"
        }
      ],
      "stateMutability": "nonpayable",
      "type": "constructor"
    },
    {
      "anonymous": false,
      "inputs": [
        {
          "indexed": true,
          "internalType": "address",
          "name": "entryPoint",
          "type": "address"
        },
        {
          "indexed": true,
          "internalType": "address",
          "name": "owner",
          "type": "address"
        }
      ],
      "name": "AccountInitialized",
      "type": "event"
    },
    {
      "anonymous": false,
      "inputs": [
        {
          "indexed": true,
          "internalType": "address",
          "name": "delegate",
          "type": "address"
        }
      ],
      "name": "DelegateAdded",
      "type": "event"
    },
    {
      "anonymous": false,
      "inputs": [
        {
          "indexed": true,
          "internalType": "address",
          "name": "delegate",
          "type": "address"
        }
      ],
      "name": "DelegateRemoved",
      "type": "event"
    },
    {
      "inputs": [],
      "name": "SIG_VALIDATION_FAILED",
      "outputs": [
        {
          "internalType": "uint256",
          "name": "",
          "type": "uint256"
        }
      ],
      "stateMutability": "view",
      "type": "function"
    },
    {
      "inputs": [
        {
          "internalType": "address",
          "name": "delegate",
          "type": "address"
        }
      ],
      "name": "addDelegate",
      "outputs": [],
      "stateMutability": "nonpayable",
      "type": "function"
    },
    {
      "inputs": [],
      "name": "addDeposit",
      "outputs": [],
      "stateMutability": "payable",
      "type": "function"
    },
    {
      "inputs": [
        {
          "internalType": "address",
          "name": "",
          "type": "address"
        }
      ],
      "name": "delegates",
      "outputs": [
        {
          "internalType": "bool",
          "name": "",
          "type": "bool"
        }
      ],
      "stateMutability": "view",
      "type": "function"
    },
    {
      "inputs": [],
      "name": "entryPoint",
      "outputs": [
        {
          "internalType": "address",
          "name": "",
          "type": "address"
        }
      ],
      "stateMutability": "view",
      "type": "function"
    },
    {
      "inputs": [
        {
          "internalType": "address",
          "name": "dest",
          "type": "address"
        },
        {
          "internalType": "uint256",
          "name": "value",
          "type": "uint256"
        },
        {
          "internalType": "bytes",
          "name": "func",
          "type": "bytes"
        }
      ],
      "name": "execute",
      "outputs": [],
      "stateMutability": "nonpayable",
      "type": "function"
    },
    {
      "inputs": [
        {
          "internalType": "address[]",
          "name": "dest",
          "type": "address[]"
        },
        {
          "internalType": "uint256[]",
          "name": "value",
          "type": "uint256[]"
        },
        {
          "internalType": "bytes[]",
          "name": "func",
          "type": "bytes[]"
        }
      ],
      "name": "executeBatch",
      "outputs": [],
      "stateMutability": "nonpayable",
      "type": "function"
    },
    {
      "inputs": [
        {
          "internalType": "address",
          "name": "_owner",
          "type": "address"
        }
      ],
      "name": "initialize",
      "outputs": [],
      "stateMutability": "nonpayable",
      "type": "function"
    },
    {
      "inputs": [],
      "name": "owner",
      "outputs": [
        {
          "internalType": "address",
          "name": "",
          "type": "address"
        }
      ],
      "stateMutability": "view",
      "type": "function"
    },
    {
      "inputs": [
        {
          "internalType": "address",
          "name": "delegate",
          "type": "address"
        }
      ],
      "name": "removeDelegate",
      "outputs": [],
      "stateMutability": "nonpayable",
      "type": "function"
    },
    {
      "inputs": [
        {
          "components": [
            {
              "internalType": "address",
              "name": "sender",
              "type": "address"
            },
            {
              "internalType": "uint256",
              "name": "nonce",
              "type": "uint256"
            },
            {
              "internalType": "bytes",
              "name": "initCode",
              "type": "bytes"
            },
            {
              "internalType": "bytes",
              "name": "callData",
              "type": "bytes"
            },
            {
              "internalType": "uint256",
              "name": "callGasLimit",
              "type": "uint256"
            },
            {
              "internalType": "uint256",
              "name": "verificationGasLimit",
              "type": "uint256"
            },
            {
              "internalType": "uint256",
              "name": "preVerificationGas",
              "type": "uint256"
            },
            {
              "internalType": "uint256",
              "name": "maxFeePerGas",
              "type": "uint256"
            },
            {
              "internalType": "uint256",
              "name": "maxPriorityFeePerGas",
              "type": "uint256"
            },
            {
              "internalType": "bytes",
              "name": "paymasterAndData",
              "type": "bytes"
            },
            {
              "internalType": "bytes",
              "name": "signature",
              "type": "bytes"
            }
          ],
          "internalType": "struct UserOperation",
          "name": "userOp",
          "type": "tuple"
        },
        {
          "internalType": "bytes32",
          "name": "userOpHash",
          "type": "bytes32"
        },
        {
          "internalType": "uint256",
          "name": "missingAccountFunds",
          "type": "uint256"
        }
      ],
      "name": "validateUserOp",
      "outputs": [
        {
          "internalType": "uint256",
          "name": "validationData",
          "type": "uint256"
        }
      ],
      "stateMutability": "nonpayable",
      "type": "function"
    },
    {
      "inputs": [
        {
          "internalType": "address payable",
          "name": "withdrawAddress",
          "type": "address"
        },
        {
          "internalType": "uint256",
          "name": "amount",
          "type": "uint256"
        }
      ],
      "name": "withdrawDepositTo",
      "outputs": [],
      "stateMutability": "nonpayable",
      "type": "function"
    },
    {
      "stateMutability": "payable",
      "type": "receive"
    }
  ],
  "bytecode": "0x60806040523480156200001157600080fd5b50604051620021f9380380620021f98339818101604052810190620000379190620000e9565b80600160006101000a81548173ffffffffffffffffffffffffffffffffffffffff021916908373ffffffffffffffffffffffffffffffffffffffff160217905550506200011b565b600080fd5b600073ffffffffffffffffffffffffffffffffffffffff82169050919050565b6000620000b18262000084565b9050919050565b620000c381620000a4565b8114620000cf57600080fd5b50565b600081519050620000e381620000b8565b92915050565b6000602082840312156200010257620001016200007f565b5b60006200011284828501620000d2565b91505092915050565b6120ce806200012b6000396000f3fe6080604052600436106100ab5760003560e01c80638da5cb5b116100645780638da5cb5b146101b65780638f41ec5a146101e1578063b0d691fe1461020c578063b61d27f614610237578063c4d66de814610260578063e71bdf4114610289576100b2565b80633a871cdd146100b757806347e1da2a146100f45780634a58db191461011d5780634d44560d14610127578063587cde1e1461015057806367e7646f1461018d576100b2565b366100b257005b600080fd5b3480156100c357600080fd5b506100de60048036038101906100d991906113e8565b6102b2565b6040516100eb9190611466565b60405180910390f35b34801561010057600080fd5b5061011b60048036038101906101169190611592565b610556565b005b610125610771565b005b34801561013357600080fd5b5061014e600480360381019061014991906116a4565b610842565b005b34801561015c57600080fd5b5061017760048036038101906101729190611722565b610a33565b604051610184919061176a565b60405180910390f35b34801561019957600080fd5b506101b460048036038101906101af9190611722565b610a53565b005b3480156101c257600080fd5b506101cb610b7f565b6040516101d89190611794565b60405180910390f35b3480156101ed57600080fd5b506101f6610ba3565b6040516102039190611466565b60405180910390f35b34801561021857600080fd5b50610221610ba8565b60405161022e9190611794565b60405180910390f35b34801561024357600080fd5b5061025e60048036038101906102599190611805565b610bce565b005b34801561026c57600080fd5b5061028760048036038101906102829190611722565b610d09565b005b34801561029557600080fd5b506102b060048036038101906102ab9190611722565b610e77565b005b6000600160009054906101000a900473ffffffffffffffffffffffffffffffffffffffff1673ffffffffffffffffffffffffffffffffffffffff163373ffffffffffffffffffffffffffffffffffffffff1614610344576040517f08c379a000000000000000000000000000000000000000000000000000000000815260040161033b906118d6565b60405180910390fd5b600082111561041e5760003373ffffffffffffffffffffffffffffffffffffffff16837fffffffffffffffffffffffffffffffffffffffffffffffffffffffffffffffff9060405161039590611927565b600060405180830381858888f193505050503d80600081146103d3576040519150601f19603f3d011682016040523d82523d6000602084013e6103d8565b606091505b505090508061041c576040517f08c379a0000000000000000000000000000000000000000000000000000000008152600401610413906119ae565b60405180910390fd5b505b600061042984610fa3565b905060006104938680610140019061044191906119dd565b8080601f016020809104026020016040519081016040528093929190818152602001838380828437600081840152601f19601f8201169050808301925050505050505083610fd990919063ffffffff16565b905060008054906101000a900473ffffffffffffffffffffffffffffffffffffffff1673ffffffffffffffffffffffffffffffffffffffff168173ffffffffffffffffffffffffffffffffffffffff1614806105385750600260008273ffffffffffffffffffffffffffffffffffffffff1673ffffffffffffffffffffffffffffffffffffffff16815260200190815260200160002060009054906101000a900460ff165b156105485760009250505061054f565b6001925050505b9392505050565b60008054906101000a900473ffffffffffffffffffffffffffffffffffffffff1673ffffffffffffffffffffffffffffffffffffffff163373ffffffffffffffffffffffffffffffffffffffff1614806105fd5750600160009054906101000a900473ffffffffffffffffffffffffffffffffffffffff1673ffffffffffffffffffffffffffffffffffffffff163373ffffffffffffffffffffffffffffffffffffffff16145b61063c576040517f08c379a000000000000000000000000000000000000000000000000000000000815260040161063390611a8c565b60405180910390fd5b818190508686905014801561065657508383905086869050145b610695576040517f08c379a000000000000000000000000000000000000000000000000000000000815260040161068c90611af8565b60405180910390fd5b60005b86869050811015610768576107558787838181106106b9576106b8611b18565b5b90506020020160208101906106ce9190611722565b8686848181106106e1576106e0611b18565b5b905060200201358585858181106106fb576106fa611b18565b5b905060200281019061070d91906119dd565b8080601f016020809104026020016040519081016040528093929190818152602001838380828437600081840152601f19601f82011690508083019250505050505050611000565b808061076090611b76565b915050610698565b50505050505050565b6000600160009054906101000a900473ffffffffffffffffffffffffffffffffffffffff1673ffffffffffffffffffffffffffffffffffffffff16346040516107b990611927565b60006040518083038185875af1925050503d80600081146107f6576040519150601f19603f3d011682016040523d82523d6000602084013e6107fb565b606091505b505090508061083f576040517f08c379a000000000000000000000000000000000000000000000000000000000815260040161083690611c0a565b60405180910390fd5b50565b60008054906101000a900473ffffffffffffffffffffffffffffffffffffffff1673ffffffffffffffffffffffffffffffffffffffff163373ffffffffffffffffffffffffffffffffffffffff16146108d0576040517f08c379a00000000000000000000000000000000000000000000000000000000081526004016108c790611c76565b60405180910390fd5b6000600160009054906101000a900473ffffffffffffffffffffffffffffffffffffffff1673ffffffffffffffffffffffffffffffffffffffff16838360405160240161091e929190611ca5565b6040516020818303038152906040527f205c2878000000000000000000000000000000000000000000000000000000007bffffffffffffffffffffffffffffffffffffffffffffffffffffffff19166020820180517bffffffffffffffffffffffffffffffffffffffffffffffffffffffff83818316178352505050506040516109a89190611d34565b6000604051808303816000865af19150503d80600081146109e5576040519150601f19603f3d011682016040523d82523d6000602084013e6109ea565b606091505b5050905080610a2e576040517f08c379a0000000000000000000000000000000000000000000000000000000008152600401610a2590611d97565b60405180910390fd5b505050565b60026020528060005260406000206000915054906101000a900460ff1681565b60008054906101000a900473ffffffffffffffffffffffffffffffffffffffff1673ffffffffffffffffffffffffffffffffffffffff163373ffffffffffffffffffffffffffffffffffffffff1614610ae1576040517f08c379a0000000000000000000000000000000000000000000000000000000008152600401610ad890611c76565b60405180910390fd5b6000600260008373ffffffffffffffffffffffffffffffffffffffff1673ffffffffffffffffffffffffffffffffffffffff16815260200190815260200160002060006101000a81548160ff0219169083151502179055508073ffffffffffffffffffffffffffffffffffffffff167f5a362b199d4fb2bd4e51a3436d86df24cb19b1b0890da774e2b54253d53aa4eb60405160405180910390a250565b60008054906101000a900473ffffffffffffffffffffffffffffffffffffffff1681565b600181565b600160009054906101000a900473ffffffffffffffffffffffffffffffffffffffff1681565b60008054906101000a900473ffffffffffffffffffffffffffffffffffffffff1673ffffffffffffffffffffffffffffffffffffffff163373ffffffffffffffffffffffffffffffffffffffff161480610c755750600160009054906101000a900473ffffffffffffffffffffffffffffffffffffffff1673ffffffffffffffffffffffffffffffffffffffff163373ffffffffffffffffffffffffffffffffffffffff16145b610cb4576040517f08c379a0000000000000000000000000000000000000000000000000000000008152600401610cab90611a8c565b60405180910390fd5b610d03848484848080601f016020809104026020016040519081016040528093929190818152602001838380828437600081840152601f19601f82011690508083019250505050505050611000565b50505050565b600073ffffffffffffffffffffffffffffffffffffffff1660008054906101000a900473ffffffffffffffffffffffffffffffffffffffff1673ffffffffffffffffffffffffffffffffffffffff1614610d98576040517f08c379a0000000000000000000000000000000000000000000000000000000008152600401610d8f90611e03565b60405180910390fd5b806000806101000a81548173ffffffffffffffffffffffffffffffffffffffff021916908373ffffffffffffffffffffffffffffffffffffffff16021790555060008054906101000a900473ffffffffffffffffffffffffffffffffffffffff1673ffffffffffffffffffffffffffffffffffffffff16600160009054906101000a900473ffffffffffffffffffffffffffffffffffffffff1673ffffffffffffffffffffffffffffffffffffffff167f526ffefac8167421b9048ae3377810715d834479565b0182ea4155f0efa4c38060405160405180910390a350565b60008054906101000a900473ffffffffffffffffffffffffffffffffffffffff1673ffffffffffffffffffffffffffffffffffffffff163373ffffffffffffffffffffffffffffffffffffffff1614610f05576040517f08c379a0000000000000000000000000000000000000000000000000000000008152600401610efc90611c76565b60405180910390fd5b6001600260008373ffffffffffffffffffffffffffffffffffffffff1673ffffffffffffffffffffffffffffffffffffffff16815260200190815260200160002060006101000a81548160ff0219169083151502179055508073ffffffffffffffffffffffffffffffffffffffff167f3be018e2afae1fe2bb23bb3cc019524cfe3872f2863d1c80b7a228c57bc1065a60405160405180910390a250565b60007f19457468657265756d205369676e6564204d6573736167653a0a33320000000060005281601c52603c6000209050919050565b6000806000610fe885856110b4565b91509150610ff581611105565b819250505092915050565b60008373ffffffffffffffffffffffffffffffffffffffff1683836040516110289190611d34565b60006040518083038185875af1925050503d8060008114611065576040519150601f19603f3d011682016040523d82523d6000602084013e61106a565b606091505b50509050806110ae576040517f08c379a00000000000000000000000000000000000000000000000000000000081526004016110a590611e6f565b60405180910390fd5b50505050565b60008060418351036110f55760008060006020860151925060408601519150606086015160001a90506110e98782858561126b565b945094505050506110fe565b60006002915091505b9250929050565b6000600481111561111957611118611e8f565b5b81600481111561112c5761112b611e8f565b5b0315611268576001600481111561114657611145611e8f565b5b81600481111561115957611158611e8f565b5b03611199576040517f08c379a000000000000000000000000000000000000000000000000000000000815260040161119090611f0a565b60405180910390fd5b600260048111156111ad576111ac611e8f565b5b8160048111156111c0576111bf611e8f565b5b03611200576040517f08c379a00000000000000000000000000000000000000000000000000000000081526004016111f790611f76565b60405180910390fd5b6003600481111561121457611213611e8f565b5b81600481111561122757611226611e8f565b5b03611267576040517f08c379a000000000000000000000000000000000000000000000000000000000815260040161125e90612008565b60405180910390fd5b5b50565b6000807f7fffffffffffffffffffffffffffffff5d576e7357a4501ddfe92f46681b20a08360001c11156112a6576000600391509150611344565b6000600187878787604051600081526020016040526040516112cb9493929190612053565b6020604051602081039080840390855afa1580156112ed573d6000803e3d6000fd5b505050602060405103519050600073ffffffffffffffffffffffffffffffffffffffff168173ffffffffffffffffffffffffffffffffffffffff160361133b57600060019250925050611344565b80600092509250505b94509492505050565b600080fd5b600080fd5b600080fd5b6000610160828403121561137357611372611357565b5b81905092915050565b6000819050919050565b61138f8161137c565b811461139a57600080fd5b50565b6000813590506113ac81611386565b92915050565b6000819050919050565b6113c5816113b2565b81146113d057600080fd5b50565b6000813590506113e2816113bc565b92915050565b6000806000606084860312156114015761140061134d565b5b600084013567ffffffffffffffff81111561141f5761141e611352565b5b61142b8682870161135c565b935050602061143c8682870161139d565b925050604061144d868287016113d3565b9150509250925092565b611460816113b2565b82525050565b600060208201905061147b6000830184611457565b92915050565b600080fd5b600080fd5b600080fd5b60008083601f8401126114a6576114a5611481565b5b8235905067ffffffffffffffff8111156114c3576114c2611486565b5b6020830191508360208202830111156114df576114de61148b565b5b9250929050565b60008083601f8401126114fc576114fb611481565b5b8235905067ffffffffffffffff81111561151957611518611486565b5b6020830191508360208202830111156115355761153461148b565b5b9250929050565b60008083601f84011261155257611551611481565b5b8235905067ffffffffffffffff81111561156f5761156e611486565b5b60208301915083602082028301111561158b5761158a61148b565b5b9250929050565b600080600080600080606087890312156115af576115ae61134d565b5b600087013567ffffffffffffffff8111156115cd576115cc611352565b5b6115d989828a01611490565b9650965050602087013567ffffffffffffffff8111156115fc576115fb611352565b5b61160889828a016114e6565b9450945050604087013567ffffffffffffffff81111561162b5761162a611352565b5b61163789828a0161153c565b92509250509295509295509295565b600073ffffffffffffffffffffffffffffffffffffffff82169050919050565b600061167182611646565b9050919050565b61168181611666565b811461168c57600080fd5b50565b60008135905061169e81611678565b92915050565b600080604083850312156116bb576116ba61134d565b5b60006116c98582860161168f565b92505060206116da858286016113d3565b9150509250929050565b60006116ef82611646565b9050919050565b6116ff816116e4565b811461170a57600080fd5b50565b60008135905061171c816116f6565b92915050565b6000602082840312156117385761173761134d565b5b60006117468482850161170d565b91505092915050565b60008115159050919050565b6117648161174f565b82525050565b600060208201905061177f600083018461175b565b92915050565b61178e816116e4565b82525050565b60006020820190506117a96000830184611785565b92915050565b60008083601f8401126117c5576117c4611481565b5b8235905067ffffffffffffffff8111156117e2576117e1611486565b5b6020830191508360018202830111156117fe576117fd61148b565b5b9250929050565b6000806000806060858703121561181f5761181e61134d565b5b600061182d8782880161170d565b945050602061183e878288016113d3565b935050604085013567ffffffffffffffff81111561185f5761185e611352565b5b61186b878288016117af565b925092505092959194509250565b600082825260208201905092915050565b7f4163636f756e743a206e6f742066726f6d20456e747279506f696e7400000000600082015250565b60006118c0601c83611879565b91506118cb8261188a565b602082019050919050565b600060208201905081810360008301526118ef816118b3565b9050919050565b600081905092915050565b50565b60006119116000836118f6565b915061191c82611901565b600082019050919050565b600061193282611904565b9150819050919050565b7f4163636f756e743a206661696c656420746f2070726566756e6420456e74727960008201527f506f696e74000000000000000000000000000000000000000000000000000000602082015250565b6000611998602583611879565b91506119a38261193c565b604082019050919050565b600060208201905081810360008301526119c78161198b565b9050919050565b600080fd5b600080fd5b600080fd5b600080833560016020038436030381126119fa576119f96119ce565b5b80840192508235915067ffffffffffffffff821115611a1c57611a1b6119d3565b5b602083019250600182023603831315611a3857611a376119d8565b5b509250929050565b7f4e6f7420617574686f72697a6564000000000000000000000000000000000000600082015250565b6000611a76600e83611879565b9150611a8182611a40565b602082019050919050565b60006020820190508181036000830152611aa581611a69565b9050919050565b7f57726f6e67206172726179206c656e6774687300000000000000000000000000600082015250565b6000611ae2601383611879565b9150611aed82611aac565b602082019050919050565b60006020820190508181036000830152611b1181611ad5565b9050919050565b7f4e487b7100000000000000000000000000000000000000000000000000000000600052603260045260246000fd5b7f4e487b7100000000000000000000000000000000000000000000000000000000600052601160045260246000fd5b6000611b81826113b2565b91507fffffffffffffffffffffffffffffffffffffffffffffffffffffffffffffffff8203611bb357611bb2611b47565b5b600182019050919050565b7f4465706f736974206661696c6564000000000000000000000000000000000000600082015250565b6000611bf4600e83611879565b9150611bff82611bbe565b602082019050919050565b60006020820190508181036000830152611c2381611be7565b9050919050565b7f4e6f74206f776e65720000000000000000000000000000000000000000000000600082015250565b6000611c60600983611879565b9150611c6b82611c2a565b602082019050919050565b60006020820190508181036000830152611c8f81611c53565b9050919050565b611c9f81611666565b82525050565b6000604082019050611cba6000830185611c96565b611cc76020830184611457565b9392505050565b600081519050919050565b60005b83811015611cf7578082015181840152602081019050611cdc565b60008484015250505050565b6000611d0e82611cce565b611d1881856118f6565b9350611d28818560208601611cd9565b80840191505092915050565b6000611d408284611d03565b915081905092915050565b7f5769746864726177206661696c65640000000000000000000000000000000000600082015250565b6000611d81600f83611879565b9150611d8c82611d4b565b602082019050919050565b60006020820190508181036000830152611db081611d74565b9050919050565b7f416c726561647920696e697469616c697a656400000000000000000000000000600082015250565b6000611ded601383611879565b9150611df882611db7565b602082019050919050565b60006020820190508181036000830152611e1c81611de0565b9050919050565b7f43616c6c206661696c6564000000000000000000000000000000000000000000600082015250565b6000611e59600b83611879565b9150611e6482611e23565b602082019050919050565b60006020820190508181036000830152611e8881611e4c565b9050919050565b7f4e487b7100000000000000000000000000000000000000000000000000000000600052602160045260246000fd5b7f45434453413a20696e76616c6964207369676e61747572650000000000000000600082015250565b6000611ef4601883611879565b9150611eff82611ebe565b602082019050919050565b60006020820190508181036000830152611f2381611ee7565b9050919050565b7f45434453413a20696e76616c6964207369676e6174757265206c656e67746800600082015250565b6000611f60601f83611879565b9150611f6b82611f2a565b602082019050919050565b60006020820190508181036000830152611f8f81611f53565b9050919050565b7f45434453413a20696e76616c6964207369676e6174757265202773272076616c60008201527f7565000000000000000000000000000000000000000000000000000000000000602082015250565b6000611ff2602283611879565b9150611ffd82611f96565b604082019050919050565b6000602082019050818103600083015261202181611fe5565b9050919050565b6120318161137c565b82525050565b600060ff82169050919050565b61204d81612037565b82525050565b60006080820190506120686000830187612028565b6120756020830186612044565b6120826040830185612028565b61208f6060830184612028565b9594505050505056fea26469706673582212200aa35be37ca97e5d25c04063f634dc2239af443e23125bf190685b055eee341764736f6c63430008110033",
  "linkReferences": {},
  "deployedLinkReferences": {}
}