{
  "_format": "hh-sol-artifact-1",
  "contractName": "AidFlowManager",
  "sourceName": "contracts/AidFlowManager.sol",
  "abi": [
    {
      "inputs": [
        {
          "internalType": "address",
          "name": "_rahatToken",
          "type": "address"
        },
        {
          "internalType": "address",
          "name": "_cashToken",
          "type": "address"
        }
      ],
      "stateMutability": "nonpayable",
      "type": "constructor"
    },
    {
      "anonymous": false,
      "inputs": [
        {
          "indexed": true,
          "internalType": "address",
          "name": "fieldOffice",
          "type": "address"
        },
        {
          "indexed": true,
          "internalType": "address",
          "name": "beneficiary",
          "type": "address"
        },
        {
          "indexed": false,
          "internalType": "uint256",
          "name": "amount",
          "type": "uint256"
        }
      ],
      "name": "Assigned",
      "type": "event"
    },
    {
      "anonymous": false,
      "inputs": [
        {
          "indexed": true,
          "internalType": "address",
          "name": "beneficiary",
          "type": "address"
        },
        {
          "indexed": false,
          "internalType": "uint256",
          "name": "amount",
          "type": "uint256"
        }
      ],
      "name": "CashedOut",
      "type": "event"
    },
    {
      "anonymous": false,
      "inputs": [
        {
          "indexed": true,
          "internalType": "address",
          "name": "account",
          "type": "address"
        },
        {
          "indexed": true,
          "internalType": "address",
          "name": "delegate",
          "type": "address"
        }
      ],
      "name": "DelegateAdded",
      "type": "event"
    },
    {
      "anonymous": false,
      "inputs": [
        {
          "indexed": true,
          "internalType": "address",
          "name": "account",
          "type": "address"
        },
        {
          "indexed": true,
          "internalType": "address",
          "name": "delegate",
          "type": "address"
        }
      ],
      "name": "DelegateRemoved",
      "type": "event"
    },
    {
      "inputs": [
        {
          "internalType": "address",
          "name": "smartAccount",
          "type": "address"
        },
        {
          "internalType": "address",
          "name": "delegate",
          "type": "address"
        }
      ],
      "name": "addDelegate",
      "outputs": [],
      "stateMutability": "nonpayable",
      "type": "function"
    },
    {
      "inputs": [
        {
          "internalType": "address",
          "name": "beneficiary",
          "type": "address"
        },
        {
          "internalType": "uint256",
          "name": "amount",
          "type": "uint256"
        }
      ],
      "name": "assignToBeneficiary",
      "outputs": [],
      "stateMutability": "nonpayable",
      "type": "function"
    },
    {
      "inputs": [
        {
          "internalType": "address",
          "name": "",
          "type": "address"
        }
      ],
      "name": "beneficiaries",
      "outputs": [
        {
          "internalType": "bool",
          "name": "",
          "type": "bool"
        }
      ],
      "stateMutability": "view",
      "type": "function"
    },
    {
      "inputs": [
        {
          "internalType": "uint256",
          "name": "amount",
          "type": "uint256"
        }
      ],
      "name": "cashOut",
      "outputs": [],
      "stateMutability": "nonpayable",
      "type": "function"
    },
    {
      "inputs": [],
      "name": "cashToken",
      "outputs": [
        {
          "internalType": "contract CashToken",
          "name": "",
          "type": "address"
        }
      ],
      "stateMutability": "view",
      "type": "function"
    },
    {
      "inputs": [
        {
          "internalType": "address",
          "name": "",
          "type": "address"
        }
      ],
      "name": "fieldOffices",
      "outputs": [
        {
          "internalType": "bool",
          "name": "",
          "type": "bool"
        }
      ],
      "stateMutability": "view",
      "type": "function"
    },
    {
      "inputs": [],
      "name": "owner",
      "outputs": [
        {
          "internalType": "address",
          "name": "",
          "type": "address"
        }
      ],
      "stateMutability": "view",
      "type": "function"
    },
    {
      "inputs": [],
      "name": "rahatToken",
      "outputs": [
        {
          "internalType": "contract RahatToken",
          "name": "",
          "type": "address"
        }
      ],
      "stateMutability": "view",
      "type": "function"
    },
    {
      "inputs": [
        {
          "internalType": "address",
          "name": "smartAccount",
          "type": "address"
        },
        {
          "internalType": "address",
          "name": "delegate",
          "type": "address"
        }
      ],
      "name": "removeDelegate",
      "outputs": [],
      "stateMutability": "nonpayable",
      "type": "function"
    },
    {
      "inputs": [
        {
          "internalType": "address",
          "name": "account",
          "type": "address"
        },
        {
          "internalType": "bool",
          "name": "isBeneficiary",
          "type": "bool"
        }
      ],
      "name": "setBeneficiary",
      "outputs": [],
      "stateMutability": "nonpayable",
      "type": "function"
    },
    {
      "inputs": [
        {
          "internalType": "address",
          "name": "account",
          "type": "address"
        },
        {
          "internalType": "bool",
          "name": "isFieldOffice",
          "type": "bool"
        }
      ],
      "name": "setFieldOffice",
      "outputs": [],
      "stateMutability": "nonpayable",
      "type": "function"
    }
  ],
  "bytecode": "0x60806040523480156200001157600080fd5b5060405162001b8838038062001b8883398181016040528101906200003791906200016b565b816000806101000a81548173ffffffffffffffffffffffffffffffffffffffff021916908373ffffffffffffffffffffffffffffffffffffffff16021790555080600160006101000a81548173ffffffffffffffffffffffffffffffffffffffff021916908373ffffffffffffffffffffffffffffffffffffffff16021790555033600260006101000a81548173ffffffffffffffffffffffffffffffffffffffff021916908373ffffffffffffffffffffffffffffffffffffffff1602179055505050620001b2565b600080fd5b600073ffffffffffffffffffffffffffffffffffffffff82169050919050565b6000620001338262000106565b9050919050565b620001458162000126565b81146200015157600080fd5b50565b60008151905062000165816200013a565b92915050565b6000806040838503121562000185576200018462000101565b5b6000620001958582860162000154565b9250506020620001a88582860162000154565b9150509250929050565b6119c680620001c26000396000f3fe608060405234801561001057600080fd5b50600436106100a95760003560e01c80638da5cb5b116100715780638da5cb5b1461015057806396c108c91461016e578063a72246871461018a578063e211b7d1146101a8578063e909ebfa146101c4578063eec0ab25146101e0576100a9565b806301567739146100ae578063020d308d146100de5780632a16081c146100fa5780635c7b79f5146101185780637eb5da0d14610134575b600080fd5b6100c860048036038101906100c391906110aa565b610210565b6040516100d591906110f2565b60405180910390f35b6100f860048036038101906100f3919061110d565b610230565b005b610102610437565b60405161010f91906111ac565b60405180910390f35b610132600480360381019061012d91906111fd565b61045b565b005b61014e60048036038101906101499190611256565b610822565b005b61015861090d565b60405161016591906112a5565b60405180910390f35b610188600480360381019061018391906112c0565b610933565b005b610192610d0f565b60405161019f9190611321565b60405180910390f35b6101c260048036038101906101bd9190611256565b610d35565b005b6101de60048036038101906101d9919061110d565b610e20565b005b6101fa60048036038101906101f591906110aa565b611027565b60405161020791906110f2565b60405180910390f35b60046020528060005260406000206000915054906101000a900460ff1681565b8173ffffffffffffffffffffffffffffffffffffffff163373ffffffffffffffffffffffffffffffffffffffff161461029e576040517f08c379a0000000000000000000000000000000000000000000000000000000008152600401610295906113bf565b60405180910390fd5b60008273ffffffffffffffffffffffffffffffffffffffff16826040516024016102c891906112a5565b6040516020818303038152906040527f67e7646f000000000000000000000000000000000000000000000000000000007bffffffffffffffffffffffffffffffffffffffffffffffffffffffff19166020820180517bffffffffffffffffffffffffffffffffffffffffffffffffffffffff83818316178352505050506040516103529190611450565b6000604051808303816000865af19150503d806000811461038f576040519150601f19603f3d011682016040523d82523d6000602084013e610394565b606091505b50509050806103d8576040517f08c379a00000000000000000000000000000000000000000000000000000000081526004016103cf906114b3565b60405180910390fd5b8173ffffffffffffffffffffffffffffffffffffffff168373ffffffffffffffffffffffffffffffffffffffff167fe8514dd4be968431135580c26314ec35afafc8178268603f99625584960d9c1660405160405180910390a3505050565b60008054906101000a900473ffffffffffffffffffffffffffffffffffffffff1681565b600460003373ffffffffffffffffffffffffffffffffffffffff1673ffffffffffffffffffffffffffffffffffffffff16815260200190815260200160002060009054906101000a900460ff166104e7576040517f08c379a00000000000000000000000000000000000000000000000000000000081526004016104de9061151f565b60405180910390fd5b8060008054906101000a900473ffffffffffffffffffffffffffffffffffffffff1673ffffffffffffffffffffffffffffffffffffffff166370a08231336040518263ffffffff1660e01b815260040161054191906112a5565b602060405180830381865afa15801561055e573d6000803e3d6000fd5b505050506040513d601f19601f820116820180604052508101906105829190611554565b10156105c3576040517f08c379a00000000000000000000000000000000000000000000000000000000081526004016105ba906115cd565b60405180910390fd5b8060008054906101000a900473ffffffffffffffffffffffffffffffffffffffff1673ffffffffffffffffffffffffffffffffffffffff1663dd62ed3e33306040518363ffffffff1660e01b815260040161061f9291906115ed565b602060405180830381865afa15801561063c573d6000803e3d6000fd5b505050506040513d601f19601f820116820180604052508101906106609190611554565b10156106a1576040517f08c379a000000000000000000000000000000000000000000000000000000000815260040161069890611662565b60405180910390fd5b60008054906101000a900473ffffffffffffffffffffffffffffffffffffffff1673ffffffffffffffffffffffffffffffffffffffff166323b872dd3330846040518463ffffffff1660e01b81526004016106fe93929190611691565b6020604051808303816000875af115801561071d573d6000803e3d6000fd5b505050506040513d601f19601f8201168201806040525081019061074191906116dd565b50600160009054906101000a900473ffffffffffffffffffffffffffffffffffffffff1673ffffffffffffffffffffffffffffffffffffffff166340c10f1933836040518363ffffffff1660e01b815260040161079f92919061170a565b600060405180830381600087803b1580156107b957600080fd5b505af11580156107cd573d6000803e3d6000fd5b505050503373ffffffffffffffffffffffffffffffffffffffff167fe06967e7fd975cc9904aa15242766aaba6f64c2f31a947f1890ff158d9a7610e826040516108179190611733565b60405180910390a250565b600260009054906101000a900473ffffffffffffffffffffffffffffffffffffffff1673ffffffffffffffffffffffffffffffffffffffff163373ffffffffffffffffffffffffffffffffffffffff16146108b2576040517f08c379a00000000000000000000000000000000000000000000000000000000081526004016108a99061179a565b60405180910390fd5b80600460008473ffffffffffffffffffffffffffffffffffffffff1673ffffffffffffffffffffffffffffffffffffffff16815260200190815260200160002060006101000a81548160ff0219169083151502179055505050565b600260009054906101000a900473ffffffffffffffffffffffffffffffffffffffff1681565b600360003373ffffffffffffffffffffffffffffffffffffffff1673ffffffffffffffffffffffffffffffffffffffff16815260200190815260200160002060009054906101000a900460ff166109bf576040517f08c379a00000000000000000000000000000000000000000000000000000000081526004016109b690611806565b60405180910390fd5b600460008373ffffffffffffffffffffffffffffffffffffffff1673ffffffffffffffffffffffffffffffffffffffff16815260200190815260200160002060009054906101000a900460ff16610a4b576040517f08c379a0000000000000000000000000000000000000000000000000000000008152600401610a4290611872565b60405180910390fd5b8060008054906101000a900473ffffffffffffffffffffffffffffffffffffffff1673ffffffffffffffffffffffffffffffffffffffff166370a08231336040518263ffffffff1660e01b8152600401610aa591906112a5565b602060405180830381865afa158015610ac2573d6000803e3d6000fd5b505050506040513d601f19601f82011682018060405250810190610ae69190611554565b1015610b27576040517f08c379a0000000000000000000000000000000000000000000000000000000008152600401610b1e906115cd565b60405180910390fd5b8060008054906101000a900473ffffffffffffffffffffffffffffffffffffffff1673ffffffffffffffffffffffffffffffffffffffff1663dd62ed3e33306040518363ffffffff1660e01b8152600401610b839291906115ed565b602060405180830381865afa158015610ba0573d6000803e3d6000fd5b505050506040513d601f19601f82011682018060405250810190610bc49190611554565b1015610c05576040517f08c379a0000000000000000000000000000000000000000000000000000000008152600401610bfc90611662565b60405180910390fd5b60008054906101000a900473ffffffffffffffffffffffffffffffffffffffff1673ffffffffffffffffffffffffffffffffffffffff166323b872dd3384846040518463ffffffff1660e01b8152600401610c6293929190611691565b6020604051808303816000875af1158015610c81573d6000803e3d6000fd5b505050506040513d601f19601f82011682018060405250810190610ca591906116dd565b508173ffffffffffffffffffffffffffffffffffffffff163373ffffffffffffffffffffffffffffffffffffffff167f0c0ee92e381a7696445c71651e0d09689a61bd67a3b7c08ebe8fec6339c1e01183604051610d039190611733565b60405180910390a35050565b600160009054906101000a900473ffffffffffffffffffffffffffffffffffffffff1681565b600260009054906101000a900473ffffffffffffffffffffffffffffffffffffffff1673ffffffffffffffffffffffffffffffffffffffff163373ffffffffffffffffffffffffffffffffffffffff1614610dc5576040517f08c379a0000000000000000000000000000000000000000000000000000000008152600401610dbc9061179a565b60405180910390fd5b80600360008473ffffffffffffffffffffffffffffffffffffffff1673ffffffffffffffffffffffffffffffffffffffff16815260200190815260200160002060006101000a81548160ff0219169083151502179055505050565b8173ffffffffffffffffffffffffffffffffffffffff163373ffffffffffffffffffffffffffffffffffffffff1614610e8e576040517f08c379a0000000000000000000000000000000000000000000000000000000008152600401610e8590611904565b60405180910390fd5b60008273ffffffffffffffffffffffffffffffffffffffff1682604051602401610eb891906112a5565b6040516020818303038152906040527fe71bdf41000000000000000000000000000000000000000000000000000000007bffffffffffffffffffffffffffffffffffffffffffffffffffffffff19166020820180517bffffffffffffffffffffffffffffffffffffffffffffffffffffffff8381831617835250505050604051610f429190611450565b6000604051808303816000865af19150503d8060008114610f7f576040519150601f19603f3d011682016040523d82523d6000602084013e610f84565b606091505b5050905080610fc8576040517f08c379a0000000000000000000000000000000000000000000000000000000008152600401610fbf90611970565b60405180910390fd5b8173ffffffffffffffffffffffffffffffffffffffff168373ffffffffffffffffffffffffffffffffffffffff167f12dade473695d73bd34e031c850d5e815fa17a42b1b5ba13ff72de2497c5e30960405160405180910390a3505050565b60036020528060005260406000206000915054906101000a900460ff1681565b600080fd5b600073ffffffffffffffffffffffffffffffffffffffff82169050919050565b60006110778261104c565b9050919050565b6110878161106c565b811461109257600080fd5b50565b6000813590506110a48161107e565b92915050565b6000602082840312156110c0576110bf611047565b5b60006110ce84828501611095565b91505092915050565b60008115159050919050565b6110ec816110d7565b82525050565b600060208201905061110760008301846110e3565b92915050565b6000806040838503121561112457611123611047565b5b600061113285828601611095565b925050602061114385828601611095565b9150509250929050565b6000819050919050565b600061117261116d6111688461104c565b61114d565b61104c565b9050919050565b600061118482611157565b9050919050565b600061119682611179565b9050919050565b6111a68161118b565b82525050565b60006020820190506111c1600083018461119d565b92915050565b6000819050919050565b6111da816111c7565b81146111e557600080fd5b50565b6000813590506111f7816111d1565b92915050565b60006020828403121561121357611212611047565b5b6000611221848285016111e8565b91505092915050565b611233816110d7565b811461123e57600080fd5b50565b6000813590506112508161122a565b92915050565b6000806040838503121561126d5761126c611047565b5b600061127b85828601611095565b925050602061128c85828601611241565b9150509250929050565b61129f8161106c565b82525050565b60006020820190506112ba6000830184611296565b92915050565b600080604083850312156112d7576112d6611047565b5b60006112e585828601611095565b92505060206112f6858286016111e8565b9150509250929050565b600061130b82611179565b9050919050565b61131b81611300565b82525050565b60006020820190506113366000830184611312565b92915050565b600082825260208201905092915050565b7f4f6e6c7920736d617274206163636f756e742063616e2072656d6f766520646560008201527f6c65676174650000000000000000000000000000000000000000000000000000602082015250565b60006113a960268361133c565b91506113b48261134d565b604082019050919050565b600060208201905081810360008301526113d88161139c565b9050919050565b600081519050919050565b600081905092915050565b60005b838110156114135780820151818401526020810190506113f8565b60008484015250505050565b600061142a826113df565b61143481856113ea565b93506114448185602086016113f5565b80840191505092915050565b600061145c828461141f565b915081905092915050565b7f44656c65676174652072656d6f7665206661696c656400000000000000000000600082015250565b600061149d60168361133c565b91506114a882611467565b602082019050919050565b600060208201905081810360008301526114cc81611490565b9050919050565b7f4e6f742062656e65666963696172790000000000000000000000000000000000600082015250565b6000611509600f8361133c565b9150611514826114d3565b602082019050919050565b60006020820190508181036000830152611538816114fc565b9050919050565b60008151905061154e816111d1565b92915050565b60006020828403121561156a57611569611047565b5b60006115788482850161153f565b91505092915050565b7f4e6f7420656e6f756768205261686174546f6b656e0000000000000000000000600082015250565b60006115b760158361133c565b91506115c282611581565b602082019050919050565b600060208201905081810360008301526115e6816115aa565b9050919050565b60006040820190506116026000830185611296565b61160f6020830184611296565b9392505050565b7f417070726f766520746f6b656e73206669727374000000000000000000000000600082015250565b600061164c60148361133c565b915061165782611616565b602082019050919050565b6000602082019050818103600083015261167b8161163f565b9050919050565b61168b816111c7565b82525050565b60006060820190506116a66000830186611296565b6116b36020830185611296565b6116c06040830184611682565b949350505050565b6000815190506116d78161122a565b92915050565b6000602082840312156116f3576116f2611047565b5b6000611701848285016116c8565b91505092915050565b600060408201905061171f6000830185611296565b61172c6020830184611682565b9392505050565b60006020820190506117486000830184611682565b92915050565b7f4e6f74206f776e65720000000000000000000000000000000000000000000000600082015250565b600061178460098361133c565b915061178f8261174e565b602082019050919050565b600060208201905081810360008301526117b381611777565b9050919050565b7f4e6f74206669656c64206f666669636500000000000000000000000000000000600082015250565b60006117f060108361133c565b91506117fb826117ba565b602082019050919050565b6000602082019050818103600083015261181f816117e3565b9050919050565b7f4e6f7420612062656e6566696369617279000000000000000000000000000000600082015250565b600061185c60118361133c565b915061186782611826565b602082019050919050565b6000602082019050818103600083015261188b8161184f565b9050919050565b7f4f6e6c7920736d617274206163636f756e742063616e206164642064656c656760008201527f6174650000000000000000000000000000000000000000000000000000000000602082015250565b60006118ee60238361133c565b91506118f982611892565b604082019050919050565b6000602082019050818103600083015261191d816118e1565b9050919050565b7f44656c656761746520616464206661696c656400000000000000000000000000600082015250565b600061195a60138361133c565b915061196582611924565b602082019050919050565b600060208201905081810360008301526119898161194d565b905091905056fea2646970667358221220a1f3e553ee8b35d7f9fba4969f8e17f850d012d2b073ed00393f3be1987695ff64736f6c63430008140033",
  "linkReferences": {},
  "deployedLinkReferences": {}
}