{
  "_format": "hh-sol-artifact-1",
  "contractName": "CashOutManager",
  "sourceName": "contracts/CashOutManager.sol",
  "abi": [
    {
      "inputs": [
        {
          "internalType": "address",
          "name": "_rahatToken",
          "type": "address"
        },
        {
          "internalType": "address",
          "name": "_cashToken",
          "type": "address"
        }
      ],
      "stateMutability": "nonpayable",
      "type": "constructor"
    },
    {
      "anonymous": false,
      "inputs": [
        {
          "indexed": true,
          "internalType": "address",
          "name": "fieldOffice",
          "type": "address"
        },
        {
          "indexed": true,
          "internalType": "address",
          "name": "beneficiary",
          "type": "address"
        },
        {
          "indexed": false,
          "internalType": "uint256",
          "name": "amount",
          "type": "uint256"
        }
      ],
      "name": "Assigned",
      "type": "event"
    },
    {
      "anonymous": false,
      "inputs": [
        {
          "indexed": true,
          "internalType": "address",
          "name": "beneficiary",
          "type": "address"
        },
        {
          "indexed": false,
          "internalType": "uint256",
          "name": "amount",
          "type": "uint256"
        }
      ],
      "name": "CashedOut",
      "type": "event"
    },
    {
      "anonymous": false,
      "inputs": [
        {
          "indexed": true,
          "internalType": "address",
          "name": "previousOwner",
          "type": "address"
        },
        {
          "indexed": true,
          "internalType": "address",
          "name": "newOwner",
          "type": "address"
        }
      ],
      "name": "OwnershipTransferred",
      "type": "event"
    },
    {
      "inputs": [
        {
          "internalType": "address",
          "name": "beneficiary",
          "type": "address"
        },
        {
          "internalType": "uint256",
          "name": "amount",
          "type": "uint256"
        }
      ],
      "name": "assignToBeneficiary",
      "outputs": [],
      "stateMutability": "nonpayable",
      "type": "function"
    },
    {
      "inputs": [
        {
          "internalType": "uint256",
          "name": "amount",
          "type": "uint256"
        }
      ],
      "name": "cashOut",
      "outputs": [],
      "stateMutability": "nonpayable",
      "type": "function"
    },
    {
      "inputs": [],
      "name": "cashToken",
      "outputs": [
        {
          "internalType": "contract CashToken",
          "name": "",
          "type": "address"
        }
      ],
      "stateMutability": "view",
      "type": "function"
    },
    {
      "inputs": [],
      "name": "owner",
      "outputs": [
        {
          "internalType": "address",
          "name": "",
          "type": "address"
        }
      ],
      "stateMutability": "view",
      "type": "function"
    },
    {
      "inputs": [],
      "name": "rahatToken",
      "outputs": [
        {
          "internalType": "contract RahatToken",
          "name": "",
          "type": "address"
        }
      ],
      "stateMutability": "view",
      "type": "function"
    },
    {
      "inputs": [],
      "name": "renounceOwnership",
      "outputs": [],
      "stateMutability": "nonpayable",
      "type": "function"
    },
    {
      "inputs": [
        {
          "internalType": "address",
          "name": "newOwner",
          "type": "address"
        }
      ],
      "name": "transferOwnership",
      "outputs": [],
      "stateMutability": "nonpayable",
      "type": "function"
    }
  ],
  "bytecode": "0x60806040523480156200001157600080fd5b506040516200119338038062001193833981810160405281019062000037919062000217565b620000576200004b620000e160201b60201c565b620000e960201b60201c565b81600160006101000a81548173ffffffffffffffffffffffffffffffffffffffff021916908373ffffffffffffffffffffffffffffffffffffffff16021790555080600260006101000a81548173ffffffffffffffffffffffffffffffffffffffff021916908373ffffffffffffffffffffffffffffffffffffffff16021790555050506200025e565b600033905090565b60008060009054906101000a900473ffffffffffffffffffffffffffffffffffffffff169050816000806101000a81548173ffffffffffffffffffffffffffffffffffffffff021916908373ffffffffffffffffffffffffffffffffffffffff1602179055508173ffffffffffffffffffffffffffffffffffffffff168173ffffffffffffffffffffffffffffffffffffffff167f8be0079c531659141344cd1fd0a4f28419497f9722a3daafe3b4186f6b6457e060405160405180910390a35050565b600080fd5b600073ffffffffffffffffffffffffffffffffffffffff82169050919050565b6000620001df82620001b2565b9050919050565b620001f181620001d2565b8114620001fd57600080fd5b50565b6000815190506200021181620001e6565b92915050565b60008060408385031215620002315762000230620001ad565b5b6000620002418582860162000200565b9250506020620002548582860162000200565b9150509250929050565b610f25806200026e6000396000f3fe608060405234801561001057600080fd5b506004361061007d5760003560e01c80638da5cb5b1161005b5780638da5cb5b146100c657806396c108c9146100e4578063a722468714610100578063f2fde38b1461011e5761007d565b80632a16081c146100825780635c7b79f5146100a0578063715018a6146100bc575b600080fd5b61008a61013a565b6040516100979190610a1a565b60405180910390f35b6100ba60048036038101906100b59190610a70565b610160565b005b6100c46104a1565b005b6100ce6104b5565b6040516100db9190610abe565b60405180910390f35b6100fe60048036038101906100f99190610b05565b6104de565b005b6101086107a8565b6040516101159190610b66565b60405180910390f35b61013860048036038101906101339190610b81565b6107ce565b005b600160009054906101000a900473ffffffffffffffffffffffffffffffffffffffff1681565b80600160009054906101000a900473ffffffffffffffffffffffffffffffffffffffff1673ffffffffffffffffffffffffffffffffffffffff166370a08231336040518263ffffffff1660e01b81526004016101bc9190610abe565b602060405180830381865afa1580156101d9573d6000803e3d6000fd5b505050506040513d601f19601f820116820180604052508101906101fd9190610bc3565b101561023e576040517f08c379a000000000000000000000000000000000000000000000000000000000815260040161023590610c4d565b60405180910390fd5b80600160009054906101000a900473ffffffffffffffffffffffffffffffffffffffff1673ffffffffffffffffffffffffffffffffffffffff1663dd62ed3e33306040518363ffffffff1660e01b815260040161029c929190610c6d565b602060405180830381865afa1580156102b9573d6000803e3d6000fd5b505050506040513d601f19601f820116820180604052508101906102dd9190610bc3565b101561031e576040517f08c379a000000000000000000000000000000000000000000000000000000000815260040161031590610ce2565b60405180910390fd5b600160009054906101000a900473ffffffffffffffffffffffffffffffffffffffff1673ffffffffffffffffffffffffffffffffffffffff166323b872dd3330846040518463ffffffff1660e01b815260040161037d93929190610d11565b6020604051808303816000875af115801561039c573d6000803e3d6000fd5b505050506040513d601f19601f820116820180604052508101906103c09190610d80565b50600260009054906101000a900473ffffffffffffffffffffffffffffffffffffffff1673ffffffffffffffffffffffffffffffffffffffff166340c10f1933836040518363ffffffff1660e01b815260040161041e929190610dad565b600060405180830381600087803b15801561043857600080fd5b505af115801561044c573d6000803e3d6000fd5b505050503373ffffffffffffffffffffffffffffffffffffffff167fe06967e7fd975cc9904aa15242766aaba6f64c2f31a947f1890ff158d9a7610e826040516104969190610dd6565b60405180910390a250565b6104a9610851565b6104b360006108cf565b565b60008060009054906101000a900473ffffffffffffffffffffffffffffffffffffffff16905090565b80600160009054906101000a900473ffffffffffffffffffffffffffffffffffffffff1673ffffffffffffffffffffffffffffffffffffffff166370a08231336040518263ffffffff1660e01b815260040161053a9190610abe565b602060405180830381865afa158015610557573d6000803e3d6000fd5b505050506040513d601f19601f8201168201806040525081019061057b9190610bc3565b10156105bc576040517f08c379a00000000000000000000000000000000000000000000000000000000081526004016105b390610c4d565b60405180910390fd5b80600160009054906101000a900473ffffffffffffffffffffffffffffffffffffffff1673ffffffffffffffffffffffffffffffffffffffff1663dd62ed3e33306040518363ffffffff1660e01b815260040161061a929190610c6d565b602060405180830381865afa158015610637573d6000803e3d6000fd5b505050506040513d601f19601f8201168201806040525081019061065b9190610bc3565b101561069c576040517f08c379a000000000000000000000000000000000000000000000000000000000815260040161069390610ce2565b60405180910390fd5b600160009054906101000a900473ffffffffffffffffffffffffffffffffffffffff1673ffffffffffffffffffffffffffffffffffffffff166323b872dd3384846040518463ffffffff1660e01b81526004016106fb93929190610d11565b6020604051808303816000875af115801561071a573d6000803e3d6000fd5b505050506040513d601f19601f8201168201806040525081019061073e9190610d80565b508173ffffffffffffffffffffffffffffffffffffffff163373ffffffffffffffffffffffffffffffffffffffff167f0c0ee92e381a7696445c71651e0d09689a61bd67a3b7c08ebe8fec6339c1e0118360405161079c9190610dd6565b60405180910390a35050565b600260009054906101000a900473ffffffffffffffffffffffffffffffffffffffff1681565b6107d6610851565b600073ffffffffffffffffffffffffffffffffffffffff168173ffffffffffffffffffffffffffffffffffffffff1603610845576040517f08c379a000000000000000000000000000000000000000000000000000000000815260040161083c90610e63565b60405180910390fd5b61084e816108cf565b50565b610859610993565b73ffffffffffffffffffffffffffffffffffffffff166108776104b5565b73ffffffffffffffffffffffffffffffffffffffff16146108cd576040517f08c379a00000000000000000000000000000000000000000000000000000000081526004016108c490610ecf565b60405180910390fd5b565b60008060009054906101000a900473ffffffffffffffffffffffffffffffffffffffff169050816000806101000a81548173ffffffffffffffffffffffffffffffffffffffff021916908373ffffffffffffffffffffffffffffffffffffffff1602179055508173ffffffffffffffffffffffffffffffffffffffff168173ffffffffffffffffffffffffffffffffffffffff167f8be0079c531659141344cd1fd0a4f28419497f9722a3daafe3b4186f6b6457e060405160405180910390a35050565b600033905090565b600073ffffffffffffffffffffffffffffffffffffffff82169050919050565b6000819050919050565b60006109e06109db6109d68461099b565b6109bb565b61099b565b9050919050565b60006109f2826109c5565b9050919050565b6000610a04826109e7565b9050919050565b610a14816109f9565b82525050565b6000602082019050610a2f6000830184610a0b565b92915050565b600080fd5b6000819050919050565b610a4d81610a3a565b8114610a5857600080fd5b50565b600081359050610a6a81610a44565b92915050565b600060208284031215610a8657610a85610a35565b5b6000610a9484828501610a5b565b91505092915050565b6000610aa88261099b565b9050919050565b610ab881610a9d565b82525050565b6000602082019050610ad36000830184610aaf565b92915050565b610ae281610a9d565b8114610aed57600080fd5b50565b600081359050610aff81610ad9565b92915050565b60008060408385031215610b1c57610b1b610a35565b5b6000610b2a85828601610af0565b9250506020610b3b85828601610a5b565b9150509250929050565b6000610b50826109e7565b9050919050565b610b6081610b45565b82525050565b6000602082019050610b7b6000830184610b57565b92915050565b600060208284031215610b9757610b96610a35565b5b6000610ba584828501610af0565b91505092915050565b600081519050610bbd81610a44565b92915050565b600060208284031215610bd957610bd8610a35565b5b6000610be784828501610bae565b91505092915050565b600082825260208201905092915050565b7f4e6f7420656e6f756768205261686174546f6b656e0000000000000000000000600082015250565b6000610c37601583610bf0565b9150610c4282610c01565b602082019050919050565b60006020820190508181036000830152610c6681610c2a565b9050919050565b6000604082019050610c826000830185610aaf565b610c8f6020830184610aaf565b9392505050565b7f417070726f766520746f6b656e73206669727374000000000000000000000000600082015250565b6000610ccc601483610bf0565b9150610cd782610c96565b602082019050919050565b60006020820190508181036000830152610cfb81610cbf565b9050919050565b610d0b81610a3a565b82525050565b6000606082019050610d266000830186610aaf565b610d336020830185610aaf565b610d406040830184610d02565b949350505050565b60008115159050919050565b610d5d81610d48565b8114610d6857600080fd5b50565b600081519050610d7a81610d54565b92915050565b600060208284031215610d9657610d95610a35565b5b6000610da484828501610d6b565b91505092915050565b6000604082019050610dc26000830185610aaf565b610dcf6020830184610d02565b9392505050565b6000602082019050610deb6000830184610d02565b92915050565b7f4f776e61626c653a206e6577206f776e657220697320746865207a65726f206160008201527f6464726573730000000000000000000000000000000000000000000000000000602082015250565b6000610e4d602683610bf0565b9150610e5882610df1565b604082019050919050565b60006020820190508181036000830152610e7c81610e40565b9050919050565b7f4f776e61626c653a2063616c6c6572206973206e6f7420746865206f776e6572600082015250565b6000610eb9602083610bf0565b9150610ec482610e83565b602082019050919050565b60006020820190508181036000830152610ee881610eac565b905091905056fea2646970667358221220fa97c5b934ce1bc6122bf146f10a2511c36d55328c480f7ae31f5c7e3efdb54c64736f6c63430008140033",
  "linkReferences": {},
  "deployedLinkReferences": {}
}